:020000040800F2
:108000000000012059F5000895F40008C5F40008A7
:10801000BFF40008B9F4000899F40008000000005B
:10802000000000000000000000000000CBF4000889
:10803000CDF4000800000000CFF40008D1F40008DF
:10804000A1F50008A1F50008A1F50008A1F50008B8
:10805000A1F50008A1F50008A1F50008A1F50008A8
:10806000A1F50008A1F50008A1F50008A1F5000898
:10807000A1F50008A1F50008E1F40008A1F5000849
:10808000A1F50008A1F50008A1F50008A1F5000878
:10809000A1F50008A1F50008A1F50008EDF400081D
:1080A000A1F50008A1F50008A1F50008A1F5000858
:1080B000A1F50008A1F50008A1F50008A1F5000848
:1080C000A1F50008A1F50008A1F50008A1F5000838
:1080D000A1F50008F5F40008A1F50008A1F50008D5
:1080E000A1F50008A1F50008A1F5000800000000B6
:1080F0000000000000000000000000000000000080
:108100000000000000000000A1F50008A1F5000833
:10811000A1F50008A1F50008A1F50008A1F50008E7
:10812000A1F50008A1F50008A1F50008A1F50008D7
:10813000A1F50008A1F50008A1F50008A1F50008C7
:10814000A1F50008A1F50008A1F50008A1F50008B7
:10815000000000000000000000000000000000001F
:10816000000000000000000000000000000000000F
:1081700000000000000000000000000000000000FF
:1081800000000000000000000000000000000000EF
:1081900000000000000000000000000000000000DF
:1081A00000000000000000000000000000000000CF
:1081B00000000000000000000000000000000000BF
:1081C00000000000000000000000000000000000AF
:1081D000000000000000000000000000000000009F
:0481E0005FF8E0F173
:1081E40010B5054C237833B9044B13B10448AFF3ED
:1081F40000800123237010BD28000020000000002F
:1082040080F6000808B5034B1BB103490348AFF3DC
:10821400008008BD000000002C00002080F600084B
:1082240053B94AB9002908BF00281CBF4FF0FF31D9
:108234004FF0FF3000F07AB9ADF1080C6DE904CECF
:1082440000F006F8DDF804E0DDE9022304B070472D
:108254002DE9F0478C460E460446089D002B50D16C
:108264008A4217466CD9B2FA82FEBEF1000F0BD0D7
:10827400CEF1200C01FA0EF620FA0CFC02FA0EF7ED
:108284004CEA060C00FA0EF43A0CBCFBF2F9BBB251
:1082940002FB19CC09FB03FA4FEA144848EA0C46DE
:1082A400B2450AD9F61909F1FF3180F02581B245AA
:1082B40040F22281A9F102093E44A6EB0A06B6FB6C
:1082C400F2F002FB106600FB03F3A4B244EA064496
:1082D400A34209D9E41900F1FF3280F00B81A342D3
:1082E40040F2088102383C440021E41A40EA094083
:1082F400002D62D0002324FA0EF42C606B60BDE8DC
:10830400F0878B4207D9002D55D0002185E8410024
:108314000846BDE8F087B3FA83F1002940F08F8066
:10832400B34202D3824200F2FC80841A66EB030655
:108334000120B446002D40D085E81010BDE8F08738
:1083440012B90127B7FBF2F7B7FA87FEBEF1000FA7
:1083540035D10121F61B4FEA174C1FFA87F8B6FBFB
:10836400FCF20CFB126608FB02F0230C43EA0646FF
:10837400B04207D9F61902F1FF3302D2B04200F23B
:10838400D2801A46361AB6FBFCF00CFB106608FBCA
:1083940000F8A3B243EA0644A04507D9E41900F162
:1083A400FF3302D2A04500F2B9801846A4EB0804BA
:1083B40040EA02409CE729462846BDE8F08707FAD0
:1083C4000EF7CEF1200326FA03F24FEA174CB2FB64
:1083D400FCF11FFA87F80CFB112206FA0EF620FABC
:1083E40003F301FB08F933431E0C46EA0246B14588
:1083F40000FA0EF409D9F61901F1FF3280F08C80ED
:10840400B14540F2898002393E44A6EB0906B6FB29
:10841400FCF00CFB106200FB08F99EB246EA02462F
:10842400B14507D9F61900F1FF3371D2B1456FD9BF
:1084340002383E44A6EB090640EA01418FE7C1F148
:10844400200722FA07F88B4048EA030326FA07F4C8
:108454004FEA134EB4FBFEF91FFA83FC0EFB1944DA
:108464008E4020FA07F809FB0CFA48EA06084FEA9E
:10847400184646EA0444A24502FA01F200FA01F65B
:1084840008D9E41809F1FF3044D2A24542D9A9F130
:1084940002091C44A4EB0A04B4FBFEF00EFB1044D6
:1084A40000FB0CFC1FFA88F848EA0444A44507D9E9
:1084B400E41800F1FF3E29D2A44527D902381C4410
:1084C40040EA0940A0FB0289A4EB0C0CCC45C2464F
:1084D400CE4615D312D055B1B6EB0A036CEB0E069B
:1084E40006FA07F7CB401F43CE402F606E60002191
:1084F400BDE8F0871046F7E68946DEE64645EAD24F
:10850400B8EB020A69EB030E0138E4E77046D7E7DB
:1085140018468FE78146BDE7114676E702383C44AA
:1085240044E7084606E7023A3E442BE7704700BF9B
:10853400F8B51E46069D17462B883288C91A8A420A
:10854400A8BF0A4694B254B118442246394607F0EB
:1085540068F833881B1B33802B8823442B802046E8
:10856400F8BD2DE9F04105460E4641F222174FF0C1
:1085740000082B78A52B03D1B5F80130BB4214D0E9
:1085840085F800803488A5212246284607F02CF877
:1085940010B93080BDE8F081421BA21A92B20146A4
:1085A4003280284607F048F8E3E70120BDE8F0816F
:1085B4002DE9F04705460E460027DFF8CC80DFF8AA
:1085C400D490338823B131462846FFF7CAFF10B947
:1085D4003846BDE8F087012210212B4800F07EFACE
:1085E400D8F8103098424BD198F80730552B0BD15E
:1085F400264B274A03F10C0153F8040B8B4242F833
:10860400040BF9D11B8813800124DFF88CA09AF89D
:10861400011011B9204600F0F1FC1AF8011F0129DC
:1086240002D1204600F0EAFC9AF80010022902D197
:10863400204600F0E3FC9AF80030042B03D1032118
:10864400204600F0DBFC9AF80030082B03D104210B
:10865400204600F0D3FC0134E4B2052CD7D1328893
:1086640005F11401143A92B23280284606F0E4FF70
:108674004FF4C87000F01CFD0137C9F80000A0E7F2
:1086840000232B709DE700BF58000020B6F60008B9
:108694006206002070060020630000202DE9FF41DF
:1086A4000446124B04ADDFF85080114F25F8021D2B
:1086B4001A60BDF80E604EB94FF4C87000F0F8FCB3
:1086C4000C4B1860304604B0BDE8F0812246CDF86A
:1086D40000802B464FF4C0613846FFF729FF064956
:1086E40004443846FFF764FFE3E700BF8C0600202C
:1086F40058000020700600206C0600202DE9F84385
:1087040000F0C8FA002581464FF00108204C214EA4
:1087140049FA05F3DB07EFB20DD542F2107000F011
:10872400C7FC728908FA05F322EA03032060738107
:1087340000F010FDA060384600F01EFAF0B1206889
:1087440000F0BCFC014680B9384600F039FA32200A
:1087540000F0AEFC60604EF6602000F0A9FC738966
:1087640008FA05F21343206073810135042D04F1E6
:108774000C04CDD1BDE8F84300F09CBA606800F069
:108784009DFC0028F1D10121384600F019FAECE7EC
:10879400500800205806002070B501224FF4807163
:1087A400264801F07DFB01224021244801F078FB9A
:1087B400234C244E244D4021304601F06BFB01280C
:1087C40002460BD14FF480711C4801F069FBBDE8EF
:1087D400704000224021194801F062BB284601F094
:1087E40096FB013CE7D1194C174D00224FF48071E0
:1087F400124801F055FB002000F0CCF9284601F0A6
:1088040086FB013CF1D1FF2000F0C4F922464FF46D
:1088140080710A4801F044FB22464021074801F0D8
:108824003FFBBFF34F8F0A490A4BCA6802F4E06268
:108834001343CB60BFF34F8F00BFFDE7001001402F
:10884400400D03000008014088860020A086010036
:1088540000ED00E00400FA0570B5002401224FF495
:108864008071194801F01CFB01224021164801F0D7
:1088740017FB164806F030FB154800F08FFB254621
:10888400144E4EF6602000F013FCA31930510C3442
:10889400302C5D609D60F4D140210F4801F0FAFA5C
:1088A4000E4B187000F056FC0D4B00F5EA30C0304A
:1088B400186000224021044801F0F2FA4CF6CC4240
:1088C400084B1B681A6070BD0010014044860020EC
:1088D400E08600205008002000080140100000201D
:1088E4004800002088860020F8B55D4801F00FFBA1
:1088F40040215C4801F0CEFA08B9FFF74DFF5A4C0D
:108904005A4BB4F803205A4D1A605A4BB3F803205B
:10891400594B1A6000F026FB00F08EFBFFF7EEFEC9
:108924002B882BB1554B186800F0C8FB00B9288080
:10893400534D286800F0C2FB98BB524E32685AB3BC
:108944005A232370222363701123A37013890827E9
:1089540001339BB21381A4F8033001236371022312
:10896400E37106234FF0040E474A4849A07123726D
:108974006072435C8BBB13700130042802F1010266
:10898400F7D101221021384800F0A8F81422206100
:108994003549306800F08AFA4FF4967000F088FB8D
:1089A40028603B4F386800F089FB3D4602460028AA
:1089B40051D16689F6B932464021364801F070FA41
:1089C4004FF48071334801F070FA4FF4967000F060
:1089D4006FFB314B38601E70F8BD012BCBD0022BDE
:1089E400C9D0032B02D182F800E0C5E7042B08BFED
:1089F4001770C1E74FF48071264801F051FA402105
:108A0400244801F047FA012808BF234A214808BF37
:108A140013784FF0400104BF0133137001F045FA9D
:108A240000226089D3B2042B06D040FA02F111F07F
:108A3400010F02F10102F5D0184A0133DBB21370C1
:108A4400154A1178994207D300234FF47A701370B2
:108A540000F02EFB2860F8BD4FF49670F8E700BFD5
:108A6400888600200008014058060020500000209D
:108A74006C060020580000204C00002070060020E6
:108A8400740600208C06002064060020980600204E
:108A94005400002000100140440000204500002044
:108AA400402801D1FFF778BE704720224FF00041E3
:108AB400002310F0010F18BF0B43013A4FEA500096
:108AC4004FEA5101F5D1184670470000024B1B686C
:108AD40018601868704700BF948600202DE9F041A3
:108AE4000E46244F22B13A68936843F00103936021
:108AF40005464FF000083C68032E1CDC4046FFF797
:108B0400D4FF0446A6B14046FFF7E0FF022E1BD077
:108B1400032E23D0012E0BD128786040FFF7C5FF28
:108B24003B68000E18601868240AFFF7BEFF444033
:108B3400E043BDE8F08155F8040BFFF7B6FF206071
:108B4400D4F80080043ED7E728886040FFF7ADFFE3
:108B54003B68000C18601868240CE6E7286820F0CD
:108B64007F406040FFF7A1FF3B68000A1860186867
:108B7400240EDAE794860020042807D8044B03EB7C
:108B8400C002918853F8300001F084B90020704786
:108B9400C4F6000870B506460024084D05EBC4036E
:108BA40046FA04F255F8340002F0010299880134BF
:108BB40001F076F9052CF1D170BD00BFC4F60008B0
:108BC400042810B40A4608D8054B03EBC004A18856
:108BD40053F8300010BC01F063B910BC704700BFFB
:108BE400C4F6000810B54FF40041134801F052F9DF
:108BF400B0FA80F44FF480711048640901F04AF926
:108C040008B944F0020408210B4801F043F908B9FB
:108C140044F004044FF40071074801F03BF908B92B
:108C240044F008042021044801F034F908B944F060
:108C34001004204610BD00BF000C01400008014094
:108C440070B5104E104C306800F038FA0546A8B9DB
:108C5400012000F02DFA3060FFF7C4FF23780B4A9F
:108C640083420DD013880A49013309889BB2994283
:108C7400138003D81580FFF7B5FF2070207870BDEE
:108C84001580FBE780060020780600207A06002085
:108C94001200002008B5FFF7D3FF044B044A1B78E9
:108CA4001078137020EA030008BD00BF7806002086
:108CB4007C06002070470020704700002DE9F04733
:108CC40081468A46904622B3134F3A68002A08BF69
:108CD4006FF00503D0B10024454626465BB93B68D6
:108CE400698968684A4698476B892D681E4404461A
:108CF400B6B2002DF3D1404603F0B5F81EB13146AB
:108D0400504603F0E9FA2046BDE8F08704460646DB
:108D1400F1E76FF00104F6E7840600202DE9F04145
:108D2400154C804623680F46164625460BBB03F0B8
:108D3400EFFE2060E8B1114B3A46114983F80080F8
:108D440003F032FA60B9FF21206803F069FA206069
:108D540030B10C4903F01DFB0B4B1E60BDE8F081E4
:108D6400286803F020FB2968012002F045FF002356
:108D74002B60BDE8F08100BF9006002014000020A5
:108D8400ECF60008B58D00088406002010B5142008
:108D940002F0A4FE044638B11422002106F066FC59
:108DA400024B1A681C60E260204610BD8806002051
:108DB40038B5144B0D461B68EBB1134B2846197894
:108DC40003F0C4FAFFF7E2FF0146B8B100240560DE
:108DD4004460284603F0D2FA28460C4903F0D1FA3D
:108DE40028460B4903F0D1FA28460122094903F029
:108DF400D6FA204638BD6FF0050038BD4FF0FF307D
:108E040038BD00BF8406002014000020C18C000877
:108E1400698E0008BB8C000810B50446C8B10D4B20
:108E24001A68904204BF00221A600369C26873B9C9
:108E3400094B1A60206808B103F028FD606808B186
:108E440003F011F82046BDE8104002F0ADBDDA6031
:108E5400F0E710BD8C0600208806002008B1FFF75B
:108E6400DBBF704708B1FFF7F9BF7047F8B590E86A
:108E7400C000054601237A897968304605F076F802
:108E8400044648B9304605F0A5FA798911B130464F
:108E940003F022FA2046F8BD10F10C0F02DB14F1A6
:108EA4000B0FF7D12846FFF7D9FFF3E770B5044657
:108EB40040680E46154620B14389934207D202F01A
:108EC400D2FF0022A9B2042002F0F4FF60606368BC
:108ED4004BB12A463146586806F0A3FB2046BDE84C
:108EE4007040FFF7C3BF4FF0FF3070BD10B5034CA7
:108EF400206800B910BDFFF78FFFF9E7880600204E
:108F040013B5012101AA144800F061FD019B134C23
:108F140013F0040314D02378042B04D106F06EF864
:108F24000223237007E00BB1032B07D102230C4863
:108F3400237002F003FF207802B010BD0123F0E794
:108F44002278042AF7D0013A012AEAD8044802F028
:108F540004FF0323E5E700BF286E0020150000206E
:108F64004486002008B5FFF7CBFF022807D003286A
:108F74000DD001280FD1BDE8084006F08FB8064A8D
:108F840041F28831BDE808407F20FFF7C7BEBDE845
:108F94000840FFF7ABBF08BDA186000808B5044B25
:108FA400186041F2883000F083F8024B186008BD65
:108FB400D4060020D006002001225A2313B50D4CFC
:108FC4008DF805008DF806208DF807208DF8043003
:108FD400019B2171204605212360FFF77FFD0922B3
:108FE4002146054BC4F80500186802B0BDE81040DE
:108FF40001F08CBB9D060020D4060020013810B57A
:10900400C4B2032C0FD8084B1A5D8A420BD01955F1
:10901400064B1B5D8B4206D0052000F049F8044B3B
:109024001860044B1C7010BD9406002098060020A4
:10903400D00600209C060020F8B5174B1B685B681F
:1090440043BB164B1B681B681B685B0622D5144D7B
:10905400286800F033F80746E0B9124C124E237822
:10906400581CC0B2F15CFFF7A7FF23780F4AF15CEC
:10907400D1540133DBB2032B94BF237027702378C0
:10908400F15CD35C994214BF32204FF4FA7000F0C3
:109094000FF82860F8BD00BF9C860020D40600208D
:1090A400D00600209C06002094060020980600208C
:1090B40010B5044600F04EF8204410BD10B5044627
:1090C40000F048F8A04294BF201A002010BD000010
:1090D40038B50E4B054618784FF47A73B3FBF0F3AA
:1090E4000B4A1068B0FBF3F000F09EF8044658B940
:1090F4000F2D09D8024629464FF0FF3000F054F8EE
:10910400044B20461D6038BD012038BD16000020E8
:109114002400002018000020074A08B51368032023
:1091240043F01003136000F02DF80020FFF7D0FF88
:1091340006F0F8F8002008BD00200240034A044B62
:1091440011681B780B441360704700BF800800202F
:1091540016000020014B1868704700BF80080020EB
:1091640038B50446FFF7F6FF0546631C1EBF044BE3
:109174001B78E418FFF7EEFF401B8442FAD838BD91
:1091840016000020074A0002D36800F4E06023F4CC
:10919400E0631B041B0C43F0BF6343F4003303433D
:1091A400D360704700ED00E0174B30B5DC68C4F3C2
:1091B4000224C4F10703251D042B28BF0423062D14
:1091C4004FF0010598BF002405FA03F303F1FF33C0
:1091D40088BF033C1940A14005FA04F4013C224035
:1091E400002842EA01024FEA0212AFBF00F16040D8
:1091F400064B00F00F00D2B2A5BFD2B200F5614019
:109204001A5480F8002330BD00ED00E014ED00E0B6
:109214000123420900F01F0003FA00F0014B43F858
:109224002200704700E100E00138B0F1807F0AD2EB
:10923400F021064B064A586082F8231000200722CA
:1092440098601A6070470120704700BF10E000E08A
:1092540000ED00E0044B04281A680CBF42F004023D
:1092640022F004021A60704710E000E0704708B56D
:10927400FFF7FCFF08BD10B5044650B1437903F075
:10928400FF0213B9027106F09DF8012300206371F7
:1092940010BD012010BD000010B5002836D00168B3
:1092A4001B4B1424994229D81A4AA3F207430A44AF
:1092B400B2FBF4F2920002648468C36343680A68F0
:1092C4002343C46822F47F522343046922F030020A
:1092D40023434469234384692343C46923431343D5
:1092E4000B600122002380F821208362C3620363A0
:1092F4004363836380F82030184610BD064B0B444B
:10930400B3FBF4F39B000364044BD5E7012010BDC9
:1093140007040240F8FFFDBFF8FBFDBF0004024054
:10932400F0B590F82040012C35D0012490F821505C
:1093340080F82040A5424FF000064FF0020428D1E7
:1093440080F82140046886632668076C26F00106CD
:109354002660C66BBD407560636043680568102B6A
:10936400C36A0BBFA260A160E160E2604BB12368F5
:1093740043F00E0323602B68002043F001032B60AD
:10938400F0BD236823F004032360236843F00A0339
:10939400F0E780F820600220F0BD000090F8213052
:1093A40010B5022B03D004238363012010BD03688E
:1093B4001A6822F00E021A601A6822F001021A607A
:1093C400294A934224D902F56272934219D0143285
:1093D400934218D01432934217D0143293420CBFE4
:1093E4004FF480534FF48033204A53600123002408
:1093F40080F82130436B80F820409BB39847204687
:1094040010BD0123F0E71023EEE74FF48073EBE780
:1094140017498B4216D014318B4215D014318B422C
:1094240014D014318B4214D014318B4214D0143123
:109434008B4214D0934214BF4FF480334FF08073A7
:109444000C4AD2E70123FBE71023F9E74FF48073BA
:10945400F6E74FF48053F3E74FF48033F0E74FF42B
:109464008013EDE7184610BD80000240000402405E
:10947400080002400000024070B40425C66B026C70
:109484003468036895402542196855D04D0753D573
:109494001A6896065EBF1A6822F004021A60604ACF
:1094A40093421FD902F56272934214D0143293424C
:1094B40013D01432934212D0143293420CBF4FF49F
:1094C40080434FF48023574A5360C36A002B00F053
:1094D400A58070BC18470423F5E74023F3E74FF455
:1094E4008063F0E750498B4216D014318B4215D07B
:1094F40014318B4214D014318B4214D014318B426A
:1095040014D014318B4214D0934214BF4FF48023EF
:109514004FF08063454AD7E70423FBE74023F9E78C
:109524004FF48063F6E74FF48043F3E74FF480236E
:10953400F0E74FF48003EDE702259540254257D02C
:109544008D0755D51A68940606D41A6822F00A02C3
:109554001A60012280F82120314A93421ED902F573
:109564006272934213D01432934212D01432934253
:1095740011D0143293420CBF4FF400534FF4003314
:10958400284A5360002380F82030836A9EE7022330
:10959400F6E72023F4E74FF40073F1E722498B4206
:1095A40016D014318B4215D014318B4214D014319F
:1095B4008B4214D014318B4214D014318B4214D00A
:1095C400934214BF4FF400334FF00073174AD8E7A7
:1095D4000223FBE72023F9E74FF40073F6E74FF487
:1095E4000053F3E74FF40033F0E74FF40013EDE7D3
:1095F40008259540254211D009070FD5196821F097
:109604000E011960012303FA02F27260836380F889
:109614002130002380F82030036B57E770BC70477B
:1096240080000240000402400800024000000240A2
:109634004FF4FA52064B82B01B68B3FBF2F301936A
:1096440000BF019B5A1E0192002BF9D102B0704752
:1096540024000020002307B541F218010193036898
:109664005A5842F480125A505B580193FFF7E0FFB6
:10967400019A03685A5003B05DF804FB70B50446C0
:1096840029B14FF40063C3604FF480438360E369FE
:109694002268002B0CBF4FF480610021E068A368AE
:1096A400156803432D4843F40073284003430B43D8
:1096B400136001201568FFF753FD40222368012041
:1096C4001D605A605D68FFF74BFD236801205D60F3
:1096D40000259D60DD609A6922F0BE021204120C1E
:1096E40042F080029A619E69FFF73AFD23680120E7
:1096F4009E61DD61DD69FFF733FD2268184BD5619A
:1097040041F21805515901200B4043F0087343F00E
:10971400040353515659FFF723FD2368114A5E5140
:1097240003F580531A6001201D68FFF719FD2268B4
:1097340002F580531D60A369012B07D141F21C017E
:10974400535843F4803343F0400353506369064A4B
:10975400998811601A68054B1A6070BD0F8120FF4B
:10976400233FDEF80020C1024080024044800240D2
:10977400F0B590F84540012C4FF0020433D0012598
:109784004FF4801780F8455040F2F45E002580F8CD
:109794004440C16201F1100403F1FF3C9D420BD12E
:1097A40041F210030268D150012380F844300023B1
:1097B40080F845301846F0BD0EFB052644F8086CC9
:1097C400C66944F8107C2EB954F8106C46F440066F
:1097D40044F8106C65452CBF0E462646013544F806
:1097E400046C1034DAE72046F0BD2DE9F04190F81E
:1097F4004540012C4FF0020430D001254FF00046C3
:1098040080F8455044F2F457002540F2F45E80F8A5
:109814004440816201F1100403F1FF3C9D420CD1EC
:1098240041F20C030268D150012380F84430002334
:1098340080F845301846BDE8F0810EFB052844F851
:10984400088C65452CBF8846A04644F8106C44F843
:109854000C7C44F8048C01351034DFE72046BDE865
:10986400F081000090F84530F0B5012B4FF0020371
:1098740069D0012280F8443080F8452029B980F865
:10988400442080F845101046F0BDC36A1C68002CC3
:1098940006DA122380F84430002380F84530F2E7DA
:1098A40040F2F454A1422FD9B1FBF4F204FB121498
:1098B40044B30132254C01F2F45104FB021140F28D
:1098C400F4560024C1F30C01571E1D6825F04055C1
:1098D4001D601CB91D6845F080551D60A74208BF76
:1098E4001D6804F1010404BF45F000551D601D68A6
:1098F4005E6045F0004508BF596094421D60DB6816
:10990400E3D10DE0012AD5D11A68C1F30C0142F06C
:1099140040521A601A68596042F000421A60DB68CB
:1099240041F21402C36203689958490705D504211A
:109934009950002141F204029950012380F84430E7
:10994400002380F845301846F0BD00BF0CFAFFFF35
:1099540090F8453030B5012B4FF0020323D0012499
:1099640080F84430836A80F845401A68002A27DB6F
:109974001A68D96812F4807217D0826B4363224448
:10998400A24208BF03631B688263C3F30D43043B15
:10999400C363036B9B6881620364012380F84430D2
:1099A400002380F84530184630BD1D688162AD053E
:1099B40055BF836B0363013342634CBF846383638A
:1099C4000123002280F8443080F84520EBE7F8B505
:1099D40090F844300546822B164630D08223026824
:1099E40080F844301369890101F4F86403F01C0120
:1099F4002143048AE402A4B20C4344F00104146138
:109A0400FFF7A8FB074614F0010007D12B685B6938
:109A14009BB23360012385F84430F8BDFFF79AFB0D
:109A2400C01BB0F5803F07D3012385F844300023E1
:109A3400032085F84530F8BD2B681C69E3E7022054
:109A4400F8BD90F8443070B5422B05462ED0422321
:109A540080F8443003688C01186904F4F86444F015
:109A6400030400F01C0020432C8A92B2E402A4B246
:109A740004435A611C61FFF76DFB064614F00100B4
:109A840003D1012385F8443070BDFFF763FB801BCD
:109A9400B0F5803F07D3012385F844300023032029
:109AA40085F8453070BD2B681C69E7E7022070BD5E
:109AB4000023F7B504460193002800F0C38090F812
:109AC400443003F0FF021BB980F8452005F036F955
:109AD4005D4B5A6822F400025A605A68216A0A43AC
:109AE4005A60236803F580531A6842F001021A6031
:109AF400FFF730FB0546236803F580521268D00750
:109B04001DD41D6900F002FD504B514A0344934299
:109B140025F01C0522D845F0080523684FF40042BF
:109B24001D6100212046FFF78CFF0546F0B1012599
:109B340001212046FFF7A2FD84F844500BE0FFF713
:109B440009FB401BB0F5FA7FD5D90325002384F81F
:109B5400445084F84530284603B0F0BD3D4B3E4A9E
:109B64000344934298BF45F00C05D6E7FF20FFF766
:109B7400F7FA6368002B53D0FFF7ECFA41F2883709
:109B8400064601AA01212046FFF721FFFFF7E2FA6A
:109B9400801BB8420BD901212046FFF76FFD01233A
:109BA40084F844300023032584F84530D3E7019B2F
:109BB4005907E6D54FF4805200212046FFF741FFB4
:109BC4000028B4D1FFF7C6FA41F28837064601AA45
:109BD40001212046FFF7FBFEFFF7BCFA801BB842C9
:109BE400D9D8019B9A06F2D501AA10212046FFF785
:109BF400EEFE00289BD1019B13F0040218BF4FF422
:109C040000629B074CBF00234FF48043E260A360D3
:109C140000212046FFF732FD012384F844309AE7FF
:109C2400A368E2685B0843EAD20292B2294620465E
:109C3400FFF707FF00287FF47AAF40F6FF70FFF7C5
:109C44008FFAE5E7012586E70000014000D3CEFE48
:109C5400BFE1E40040F1E9FD3F787D0190F8453033
:109C640073B5012B05464FF0020031D000240126C4
:109C74002B6885F8440001941A6885F8456042F021
:109C840008021A601B680193FFF7D2FC019A2B6843
:109C94001A6000941A6842F004021A601B68009368
:109CA400FFF7C6FC2B68009A28461A60FFF7D2FC1F
:109CB40041F2180320462A68D15841F40051D1508A
:109CC400D15841F00201D15085F8446085F84540EF
:109CD40002B070BD2DE9F74F00221646654BDFF840
:109CE400A4E1DFF8A4C14FF001080C6808FA06F8F3
:109CF40008EA0404A0457FD14D68122D00F0AF801E
:109D040000F28880022D00F0A7807CD8002D00F09E
:109D14008E80012D00F09E804FF00F09FF2C93BF21
:109D2400824606F18045083DD0F800B092BFB500E8
:109D3400D0F804B0AD0009FA05F82BEA080802FAD5
:109D440005F588BF00F1040A48EA0505CAF8005081
:109D5400D1F804A01AF0805F4ED0474D464FAD694C
:109D640026F0030845F00105BD61BD6908F180488E
:109D740005F00105019508F5803806F0030B019DF7
:109D84004FEA8B0BD8F8085009FA0BF925EA0909B0
:109D94003A4DA84268D005F58065A84266D005F51D
:109DA4008065A84264D005F58065A8420CBF0325F0
:109DB400042505FA0BF545EA0905C8F808501D689D
:109DC4001AF4803F14BF2543A5431D605D681AF44F
:109DD400003F14BF2543A5435D609D681AF4801FAE
:109DE40014BF2543A5439D60DD681AF4001F14BF0A
:109DF4002C4325EA0404DC600136102E7FF473AF93
:109E040003B0BDE8F08F032D22D0112D84D1CA6890
:109E1400043281E71A4FBD4209D012D8DFF86C90A2
:109E24004D4504D009F580394D457FF475AF8A68F6
:109E3400C2B1012A0CBFC0F81080C0F814800822F7
:109E44006AE77545F3D06545F1D0DFF84490EBE758
:109E5400002261E7CA685FE7CA6808325CE7CA683B
:109E64000C3259E7042257E70025A2E70125A0E7B1
:109E740002259EE700040140001002400008014052
:109E840000002110000031100000321000001110F9
:109E9400000022108368194214BF0120002070477B
:109EA4000AB1016170470904FBE7C3685940C16006
:109EB4007047000008B5044B5969014202D058614B
:109EC400FEF7EEFD08BD00BF0004014038B50446AE
:109ED400D8B14CF6CC4203681A6045F255521A6068
:109EE40042685A6082689A60FFF734F9054623682D
:109EF400D86818B94AF6AA221A6038BDFFF72AF9B9
:109F0400401B3028F3D9032038BD012038BD4AF660
:109F1400AA22036800201A607047000003682DE934
:109F2400F341DB07054614D42B689F0762D42B68E2
:109F3400190700F199802B685A0700F1C380EA6A77
:109F4400002A40F031812A6A002A40F084810020EE
:109F540014E0904C636803F00C03042B07D063688F
:109F640003F00C03082B0CD16368DE0309D52368C6
:109F74009C03D9D5AB68002BD6D1012002B0BDE833
:109F8400F081AB68B3F5803F10D1236843F480338C
:109F94002360FFF7DFF8064623689803C4D4FFF76D
:109FA400D9F8801B6428F7D90320E7E79BB9236815
:109FB40023F480332360236823F480232360FFF792
:109FC400C9F8064623689903AED5FFF7C3F8801B8A
:109FD4006428F7D9E8E7B3F5A02F236803D143F445
:109FE40080232360D1E723F480332360236823F4A0
:109FF4008023CDE7674C636813F00C0F07D06368C8
:10A0040003F00C03082B10D16368DA030DD4236822
:10A014009B0702D56B69012BAFD12368AA6923F092
:10A02400F80343EAC203236081E76A695A4B6AB1C1
:10A0340001221A60FFF78EF8064623689F07ECD4C6
:10A04400FFF788F8801B0228F7D9ADE71A60FFF7FD
:10A0540081F80646236898077FF569AFFFF77AF819
:10A06400801B0228F6D99FE7EA694A4C4B4BDAB1C8
:10A0740001221A60FFF76EF80646636A9B070DD546
:10A084004FF4FA52464B1B68B3FBF2F3019300BF43
:10A09400019B5A1E0192002BF9D14CE7FFF75AF8A5
:10A0A400801B0228E9D97FE71A60FFF753F80646B8
:10A0B400636A9F077FF53FAFFFF74CF8801B0228C8
:10A0C400F6D971E7334CE369DE0024D40127E36950
:10A0D40043F08053E361E36903F080530093009BF2
:10A0E400304E3368D80518D52B69012B26D1236A45
:10A0F40043F001032362FFF72DF841F288368046CE
:10A10400236A9A073FD5002F3FF419AFE36923F080
:10A114008053E36113E70027E2E7336843F4807375
:10A124003360FFF717F880463368D905DCD4FFF7AE
:10A1340011F8A0EB08006428F6D935E7ABB9236A17
:10A1440041F2883823F001032362236A23F00403D5
:10A154002362FEF7FFFF0646236A9B07D3D5FEF76B
:10A16400F9FF801B4045F7D91EE7052B236A03D16D
:10A1740043F004032362BAE723F001032362236A52
:10A1840023F00403B6E7FEF7E5FFA0EB0800B042B6
:10A19400B6D909E70010024000004242800442425E
:10A1A40024000020007000404F4C6368D80308D599
:10A1B400636803F00C03082B03D1E36AD9033FF56A
:10A1C400DCAE022A33D12368DA0006D5E36A6A6B6F
:10A1D40003F0F00393427FF4D0AE0023434E336088
:10A1E400FEF7B8FF074623681B011AD4E36A6A6BBB
:10A1F40023F0F0031343E362E36A2A6B23F47063EE
:10A204001343E36201233360FEF7A4FF0646236889
:10A214001F013FF598AEFEF79DFF801B6428F6D919
:10A22400C2E6FEF797FFC01B6428DCD9BCE6002217
:10A23400E36A23F48033E3622C4B1A60FEF78AFF4F
:10A244000646236818017FF57EAEFEF783FF801B68
:10A254006428F6D9A8E6244C636803F00C03082BA1
:10A264003FF48BAE0023224E022A33602FD1FEF737
:10A2740071FF07462368990123D46B6AB3F5803FC5
:10A2840009D1E26A69680A43E262E26AE96822F093
:10A294000F020A43E262A96A62680B4322F4741251
:10A2A4001343636001233360FEF754FF05462368BC
:10A2B4009A013FF54CAEFEF74DFF401B0228F6D93C
:10A2C40072E6FEF747FFC01B0228D3D96CE6FEF7FF
:10A2D40041FF054623689B017FF539AEFEF73AFF3F
:10A2E400401B0228F6D95FE6001002406800424293
:10A2F40060004242F0B589B06A462C4B03F1080570
:10A30400144618685968083303C4AB422246F7D18F
:10A3140018689B882060A380254B04AC03F11005CA
:10A32400224618685968083303C2AB421446F7D171
:10A3340020494B6803F00C02042A35D0082A02D0C5
:10A344001D4809B0F0BDC3F3834208A80244DB03EF
:10A3540012F8206C25D5CB6A03F00F03034413F8DD
:10A36400102CCB6A13F4803F144B15D0CF6ACC6AFF
:10A37400C4F303240234A4FB0645A4FB030103FB3A
:10A384000511C7F303130133A3FB0223FDF748FFB1
:10A394000D2ED6D14008D4E703FB06F0B0FBF2F053
:10A3A400F6E707487043CCE70448CAE798F6000884
:10A3B400A6F600080010024000127A0040787D01E1
:10A3C40000093D004D4A2DE9F0411368054603F0AC
:10A3D40007038B420E4628D32A68910732D4D2074A
:10A3E40038D4464A136803F007039E4273D32A689D
:10A3F400434C12F0040F79D1130706D563682A6918
:10A4040023F4605343EAC2036360FFF773FF636896
:10A414003C4AC3F30313D35CD8403B4B1860002081
:10A42400FEF756FE0020BDE8F081136823F0070311
:10A434000B431360136803F007039942CCD0012047
:10A44400BDE8F0812E49A8684B6823F0F00303436C
:10A454004B60C4E76A682A4C012A23681CD113F4B0
:10A46400003FECD0636841F2883823F003031343C0
:10A474006360FEF76FFE6B680746012B14D16368B7
:10A4840003F00C03042BACD0FEF764FEC01B404564
:10A49400F5D90320BDE8F081022A02D113F0007F30
:10A4A400DFE713F0020FDCE7022B0FD1636803F040
:10A4B4000C03082B95D0FEF74DFEC01B4045F5D983
:10A4C400E7E7FEF747FEC01B4045E2D8636813F098
:10A4D4000C0FF6D185E7136823F0070333431360A9
:10A4E400136803F007039E42A9D180E76368E96813
:10A4F40023F4E0630B4363607EE700BF0020024067
:10A5040000100240E7F7000824000020014B1868FF
:10A51400704700BF24000020044B054A5B68C3F366
:10A524000223D35C034A1068D840704700100240ED
:10A53400F7F7000824000020044B054A5B68C3F3C6
:10A54400C223D35C034A1068D8407047001002400D
:10A55400F7F70008240000200368DA6822F49072F8
:10A56400DA605A6922F001025A61202380F83A30F5
:10A57400704700002DE9F0470568C2682B6901693E
:10A5840023F4405313432B618368EA680B43416906
:10A5940022F4B05222F00C020B431343EB606B69BC
:10A5A400826923F4407313436B61404B81469D429F
:10A5B4004FF0190446D1FFF7BFFF04FB00F3D9F8AD
:10A5C40004604FF06408B600B3FBF6F3B3FBF8F392
:10A5D4001E01FFF7B1FF6043D9F804309B00B0FBC4
:10A5E400F3F7FFF7A9FF6043D9F804309B00B0FBF1
:10A5F400F3F3B3FBF8F308FB13731B013233B3FB20
:10A60400F8F303F0F007FFF797FF6043D9F804204D
:10A614009200B0FBF2FAFFF78FFF6043D9F80430E1
:10A624009B00B0FBF3F3B3FBF8F308FB13A31B018C
:10A634003233B3FBF8F303F00F033B433344AB6013
:10A64400BDE8F087FFF768FF04FB00F3D9F8046066
:10A654004FF06408B600B3FBF6F3B3FBF8F31E0146
:10A66400FFF75AFF6043D9F804309B00B0FBF3F7BF
:10A67400FFF752FF6043D9F804309B00B0FBF3F3BB
:10A68400B3FBF8F308FB13731B013233B3FBF8F38A
:10A6940003F0F007FFF740FF6043D9F8042092006D
:10A6A400B0FBF2FAFFF738FFB7E700BF003801400C
:10A6B40010B5044640B390F8393003F0FF021BB9DB
:10A6C40080F8382004F092FE2423226884F839307C
:10A6D400D368204623F40053D360FFF74BFF23686D
:10A6E40000201A6922F490421A615A6922F02A025F
:10A6F4005A61DA6842F40052DA602023E06384F895
:10A70400393084F83A3010BD012010BD38B5044604
:10A71400134694F83920202A2AD139B333B394F854
:10A724003820012A24D00122002584F8382021224F
:10A73400E384206BE56384F839200E4AA384216204
:10A7440082620D4A4563C2620C4A02632268043283
:10A75400FEF7E6FD6FF04002236828461A605A6946
:10A7640084F8385042F080025A6138BD012038BD67
:10A77400022038BD87A70008B5A700083FA8000835
:10A78400704708B50368426A1B6813F020030AD1B6
:10A79400D38413685A6922F080025A61DA6842F05D
:10A7A4004002DA6008BD1046FFF7EAFF08BD7047B3
:10A7B40008B5406AFFF7FBFF08BD704790F83A30D0
:10A7C40010B5222B36D183680169B3F5805F026826
:10A7D400836A23D15268E9B9C2F3080223F8022B31
:10A7E4008362C48D013CA4B2C4858CB90368DA6861
:10A7F40022F02002DA60DA6822F48072DA605A69A0
:10A8040022F001025A61202380F83A30FFF7D5FF85
:10A81400002010BDD2B223F8012BE1E721B9591C65
:10A82400526881621A70DCE75268591C816202F036
:10A834007F02F7E7022010BD7047416A08B50B6834
:10A844005A6991F8390021280AD1120608D5002244
:10A85400CA84DA6822F0C002DA60202281F8392042
:10A864005B6991F83A20222A06D15B0604D50023BD
:10A874000846CB85FFF770FECB6B084643F0100308
:10A88400CB63FFF7D9FF08BD036870B51A680446A7
:10A894001607D9685D6907D196065AD58D0658D52D
:10A8A400BDE87040FFF78ABF15F0010502D111F42D
:10A8B400907F4ED0D30705D5CE0542BFE36B43F05E
:10A8C4000103E363500704D51DB1E36B43F00203B6
:10A8D400E363930704D51DB1E36B43F00403E3631F
:10A8E400160704D51DB1E36B43F00803E363E36B80
:10A8F400002B66D0950604D5880602D52046FFF7BE
:10A904005DFF236820465D69E26B110702D415F0F0
:10A9140040051AD0FFF720FE23685A69520610D565
:10A924005A69606B22F040025A6150B1254B43636F
:10A93400FEF734FD002844D0606BBDE87040436BE3
:10A9440018472046FFF778FF70BDFFF775FFE563F2
:10A9540070BD160627D50D0625D594F83920212A71
:10A964002FD1A268B2F5805F226A17D11188C1F392
:10A9740008015960216979B902322262E28C013AF4
:10A9840092B2E284EAB9DA6822F08002DA60DA6824
:10A9940042F04002DA6070BD0132EEE7511C2162E0
:10A9A40012785A60EAE750060BD54A0609D5DA68E8
:10A9B400204622F04002DA60202384F83930FFF781
:10A9C400DFFE70BDCDA9000808B50023406AC38529
:10A9D400C384FFF731FF08BD40BA80B2704700BAA4
:10A9E400704708B500F0C0FF01F0E8F801F01BF96A
:10A9F40004F03EF801F0D6FBBDE8084003F0DEBFEA
:10AA040070B518264643074C0546A05918B101F005
:10AA14002AFA0023A351182303FB054400232375BA
:10AA240070BD00BFD80600202DE9F74F0A22054665
:10AA34000020304B1646964681468446834614468B
:10AA4400984601910A2C1F7D10D18FB944B2013070
:10AA54000A2803F11803F5D1019B990703D40A2CA2
:10AA64001BD1DB0728D44FF0FF3008E0002FEED0D5
:10AA74009DB329688A4659688A452ED140B203B0ED
:10AA8400BDE8F08FE245E2D346B2D446DFE7CA45DB
:10AA940024BF4FFA80FED146D9E7E4B225B118238A
:10AAA40003FB04832A685A60182303FB04880023E9
:10AAB40060B2A8F81230E2E7BEF10A0F05D05FFADF
:10AAC4008EF42046FFF79CFFE8E70A2E01D0F4B28B
:10AAD400F7E70A2AC7D0D4B2F3E7012FB3F812A0DC
:10AAE400D5D11F68002FCDD0DA45B0D342B2D346BA
:10AAF400ADE700BFD80600202DE9F7430746884696
:10AB040091461C21002202201D4601F0D3F906467D
:10AB140080B344680120FFF75FFFE0802B68314673
:10AB2400A360AB880025A381144B38461A689B8820
:10AB3400C4F81220E3820A9B42461B68C4F80E3014
:10AB44000B9B1B682570A361012363700823A3700A
:10AB5400062323710423637140F60603E570009312
:10AB64004B4604F075F8304601F07DF9284603B0F1
:10AB7400BDE8F0834FF0FF30F9E700BFC6F70008E7
:10AB840070B506460024074D2B7D2BB1AB68B3424C
:10AB940002D12046FFF734FF01340A2C05F11805D1
:10ABA400F2D170BDD80600202DE9FF4780460D463E
:10ABB40081B144682388B3F5807F08D12379062BBB
:10ABC40005D16379042B02D16388082B05D0404654
:10ABD40001F049F904B0BDE8F087D4F80E004F68DD
:10ABE4000390A36917B1DB1B5F425F41002F04F19F
:10ABF400080614BF4FF001094FF00209B0B329460B
:10AC040000F0D9FB824688BB039B03F0F003E02BE2
:10AC14002CD0494603A8FFF707FF002826DB18239A
:10AC240043430220244A03F10C0ED11808758D60A9
:10AC3400306802EB0E0C42F80E00B088ACF8040049
:10AC440052F80390A1F812A0B9F1000F0ED042F807
:10AC540003A04FF4006305F12502009349463346EF
:10AC6400284603F0F5FF484601F0FDF8E388B3F504
:10AC7400807FACD1002FAAD00220FFF7ADFED4F81C
:10AC84000E30E080A3616B682846C4F80E30326849
:10AC940004F11203C4F81220B2889A802A4652F8AA
:10ACA400251FA16092884146B28040F606020092B8
:10ACB400324603F0CDFF8AE7D806002007B50246E6
:10ACC40000F125030432019100921946024AFFF76C
:10ACD40013FF03B05DF804FBC0F70008F8B50025C6
:10ACE40002260427114C227C6AB1E38901339BB20A
:10ACF400B3F5967FE38103D2012A0AD1042B0CD940
:10AD04002846FFF77DFE01350A2D04F11804EAD127
:10AD1400F8BD032A06D12774F5E721466068FFF7DA
:10AD2400CDFFF0E7042AEED12674ECE7DC06002020
:10AD34002DE9F743894618215143194C07466618F3
:10AD4400337D1546022B00F125080AD1738AB3F529
:10AD54008E7F15D904312144FFF7B0FF08B90323CE
:10AD6400337518234FF4006203FB054300920C3340
:10AD740042464946384603F06BFF03B0BDE8F08312
:10AD8400B3F5877FEDD301F10C0204312144031D97
:10AD940001910093224443464146FFF7ADFEDDE7AF
:10ADA400D80600202DE9F341884607460146D8F825
:10ADB4000000144600F0FFFA00284BD1D8F8003008
:10ADC40003F0F002E02A45D0002B43D00121404695
:10ADD400FFF72AFE061E40DB18232C4D03FB065307
:10ADE4001A7D002A3BD101229F601A7541463846DC
:10ADF400FFF764FF94B118237343EA18127D012A04
:10AE04000FD9234A0C3316704FF400622B4400927E
:10AE1400214607F12502384603F01AFF02B0BDE8C7
:10AE2400F081FBD1234683B9204601F000F954B3E5
:10AE34002746182303FB06F2A8581C4608B101F064
:10AE440012F866430020AF51E8E71A7B012A0BD1C0
:10AE54001B68E8E76FF00F00E0E73046DEE7002C00
:10AE6400C4D04FF0FF30C6E700221989022001F058
:10AE740021F8074638B1214601F0ECF80028D8D073
:10AE8400384600F0F0FF4FF0FF30C7E7D806002047
:10AE9400C8070020F0B5044685B00E460146106888
:10AEA400154600F088FA00285BD12B6803F0F00205
:10AEB400E02A1DD101238DF808305E238DF80A3075
:10AEC4006B788DF8090003F07F038DF80B30AB78B5
:10AED4008DF80C30EB788DF80D3002AB4FF4006236
:10AEE40031460092204604F1250203F0B1FE1FE032
:10AEF4006268A1685A400A4208D04FF6A9629BB220
:10AF0400934203D0E36873B304F10C051820174B84
:10AF140017491A7800FB0210017D0129194609D945
:10AF24002F6843689F4205D131462046FFF700FF52
:10AF340005B0F0BD00220E4B187D012806D92F68FC
:10AF44005868874202D1D2B20A70EDE701320A2A68
:10AF540003F11803F0D1324629462046FFF722FFB9
:10AF6400E6E7044BBAE76FF00300E1E7C807002007
:10AF7400D8060020C0F70008F0B5044687B00F4695
:10AF8400164624210022012000F094FF054650B308
:10AF940000232268446802F11C0023716371A371C9
:10AFA400E37113462770667004F1080153F8046BCB
:10AFB400834241F8046BF9D1D36806AE46F8043DE8
:10AFC400304600F0A1F858B100210123A170E170CE
:10AFD400324602908DE80A002846FF2300F0DAF991
:10AFE400284600F040FF07B0F0BD00002DE9FF4700
:10AFF4003E4B0446D3F808A088469AF800501F46F2
:10B0040005F00F05AD00132D2CD94289032A29D947
:10B0140042681278082A25D1586900F0F002E02A23
:10B0240020D0196800F0C7F90646D8B92389072B40
:10B0340018D905F10E0120460FFA85F900F005FF35
:10B04400002849D021893246294489B2022000F0DF
:10B0540031FF064630B1428905F108039A4207D20E
:10B0640000F001FF204604B0BDE8F04700F0FBBE4D
:10B0740051462A46406804F0D4FA6942304600F04A
:10B08400E4FE08B13046EBE72146304600F0E2FF2B
:10B094000028F7D1204600F0E6FE34464946204613
:10B0A400656800F0D2FE02460028DBD161687B6946
:10B0B400CB603B690B61FF232870A870E8700B72AA
:10B0C4008872C872012100900191CDF80880084966
:10B0D400204600F05FF9C5E7C5F57F41F23109B2BA
:10B0E400204600F0B2FE0028BCD1D7E78408002037
:10B0F400980800200A4604300321FFF73DBF0A46A2
:10B1040004300B21FFF738BF30B5134B1B686BB904
:10B11400124A1268EAB192F82B1001F005010529D0
:10B1240017D15168002918BF134612E093F82B4039
:10B1340004F00502052AE9D15A68002AE6D001681C
:10B144009D684A402A4204D0A207DFD4DA689142BB
:10B15400DCD1184630BD00BF9C3D0020A03D00203E
:10B164002DE9F84F4768054697F8009088464FEA5E
:10B174001913042B05D0284600F075FE0020BDE805
:10B18400F88F7888FFF728FC2B8909F00F09834290
:10B194004FEA8909044603D90146284600F016FF00
:10B1A4006B894B45E7D32B89A342E4D3B9F1130F41
:10B1B400E1D93B69474C6361FA6803F0F003E02B83
:10B1C400226139D198F82B30DA0703D5D8F8043046
:10B1D400002B55D100264146206900F0ECF80028E8
:10B1E400C9D1236903F0F003E02BC4D0002EC2D0F0
:10B1F400FB8823F0C00333B1284600F097F90546D5
:10B204000028BBD0476884E84001A7603B78C9F1B7
:10B21400000103F00F039B002846A38100F015FEF4
:10B224007B7A062B3AD0112B2CD0012B3BD14146F3
:10B234002846FFF7DBFE29E046464FF0010ADFF817
:10B2440098B096F82B30DB0704D4BAF1000F0DD177
:10B2540036680DE07368002BF7D060698342BAD07A
:10B26400314600F0A8F80028EFD0B4E7DBF800601E
:10B27400464508BF36684FF0000A002EE1D1A9E721
:10B284004646A8E74146284603F0F4FB0023236022
:10B294006360A360A381236163616FE7414628462D
:10B2A40002F06AF9F2E73146606900F084F868B99F
:10B2B400636903F0F003E02B08D04946284600F008
:10B2C400CBFD6F6002212846FFF714FF284600F0EB
:10B2D400CAFDDBE7840800209C3D00202DE9F347EC
:10B2E4000C9F064689469A461546002A3FD01421EB
:10B2F40000F0ABFD8046002845D174689DF82C30E1
:10B3040084F808A063722B682361452323709DF899
:10B31400283063703089FFF75FFB84F8068084F877
:10B324000780DFF86C806080B8F80000FFF754FBFA
:10B33400B8F80030A0800133A8F80030B9F1000F4C
:10B3440012D1124B1B68E3600023A372E3727B8C5F
:10B354009BB132899A4210D92A463946304600F0C8
:10B3640049FA02B0BDE8F087D9F80030EBE743684A
:10B3740002AD1B6945F8043DE9E77B692A4631467D
:10B3840038469847EDE76FF00100EAE7ECF600086D
:10B39400CA070020F0B4069C9DF810509DF8146074
:10B3A4001AB109B10F6807B9211D069405960495D1
:10B3B400F0BCFFF793BF431E033311D891F82B3031
:10B3C40013F002030ED04A6890420BD08B684240BF
:10B3D4001A4207D1DB4383430CBF0120002070478E
:10B3E400012070470020704710B50446406908B139
:10B3F40000F039FD2146BDE81040052000F0FCBBFB
:10B404002DE9F0414668044673680F469A8852BB9A
:10B414001A6800F11C01426000F1080252F8040BA2
:10B424008A4243F8040BF9D101213046FFF767FE45
:10B43400304600F0F4FD0546304600F014FD666821
:10B444009EB9104A2146136804209C42236814BF05
:10B454003B60136000F0D0FB0B4A284613885B1B4B
:10B464001380BDE8F0810025E9E773683046D3F81E
:10B47400008000F0D4FD05443046ADB200F0F3FC8A
:10B484004646DDE7D0070020CC0700202DE9F04137
:10B4940006460F460025DFF8688000242146A646AC
:10B4A4002046D8F8003053B910B1FFF7A9FF05447E
:10B4B400BD4201DA012CF0DC2846BDE8F081D6F863
:10B4C4000CC05A69624509D1D6F810C09A69624520
:10B4D40004D1B3F80CC0B288944508D0013460B1EB
:10B4E400C27F93F81FC094459CBF714618461A68E2
:10B4F400002A18BF9E461346D5E771461846F6E75C
:10B50400D007002038B50024074B186800B938BDAF
:10B51400C37F056823B10446013BC3772846F5E79A
:10B524002146FFF76DFFF9E7D00700202DE9F74F1B
:10B5340044680546237803F00F03052B40F08B8005
:10B54400E088FFF749FA01906088FFF745FA8346DF
:10B55400284694F8008000F062FDA44E81463388AA
:10B5640003440A2B6EDCA24FD7F800A0BAF1000FF7
:10B5740076D1042000F030FB824658B94946204673
:10B58400FFF784FF814566DC042000F025FB82463A
:10B59400002860D020220021504604F067F80322DE
:10B5A4008AF81F203A680AF10801CAF800202246E6
:10B5B400C7F800A004F1140052F804EB824241F8E9
:10B5C40004EBF9D132889144A6F80090E2889306FE
:10B5D4000ED49AF81E2008F00F08019BABEB880BE1
:10B5E40042F001020BEBC3038AF81E20AAF81C30B8
:10B5F400D5F80480B8F80200FFF7EEF998F8004097
:10B6040004F00F04A0EB8404B8F80600FFF7E4F993
:10B6140000220123C0F30C00C000A4B269680444F2
:10B62400A4B2DAF804C00A704A708A70CA708880BA
:10B63400CC80BCF1000F26D1002A40F08880CAF8E3
:10B64400045031E001462046FFF720FF18B133884B
:10B654004B440A2B87DD284600F005FC002464E0F7
:10B66400E268DAF8141091420AD12269DAF8181063
:10B67400914205D1BAF80C10A288914200F095804D
:10B68400DAF800A072E7DCF80480B8F804904845C2
:10B694004FD2C1F800C0002AD1D0B2F806C0844508
:10B6A40064D84C4562D815609AF81E2012F0010443
:10B6B4003BD0002BD2D0DAF80440002C35D064689B
:10B6C400A288002ACAD10A68002A46D12146BAF8BB
:10B6D4001C2025681432AAF81C200AF11C000AF167
:10B6E400080252F804EB824241F804EBF9D1BAF8AB
:10B6F4001C00FFF771F900226080A271E271A2724E
:10B70400E272DAF80440002D37D13A68924546D106
:10B71400DAF800203A605146042000F06DFA204621
:10B7240000F07DFC3388181A3080204603B0BDE851
:10B73400F08F1BD0B8F806C0844517D81AB1D28848
:10B744004A4518BF0023D8F800C0424671E7D488A0
:10B754001560A04218BF0023A6E75068C9888288F4
:10B7640091427FF47BAF02680146ADE7284600F0C2
:10B7740056FC3388181A30806DE7D5F804806FF0D2
:10B784001301284600F061FB2946204600F054FCD2
:10B79400D8F80050B7E711688A4523D00A46002A32
:10B7A400F9D1DAF800301360FFDEE088FFF714F90E
:10B7B400C0F30C0000287FF405AFBAF80E00FFF7C1
:10B7C4000BF9C0F30C0000283FF4FCAE22460AF14A
:10B7D400080104F1140052F804EB824241F804EB2E
:10B7E400F9D1EFE6DAF80010116094E7CC070020F5
:10B7F400D007002008232DE9F04FB1F822808BB048
:10B80400A8F1140898FBF3F81FFA88F30693436829
:10B8140007461E788B4606F00F06B600142E0892D3
:10B82400029304D06FF005000BB0BDE8F08F029BCB
:10B83400D888FFF7D1F8C0F30C0310F40054049334
:10B84400F0D13D891FFA88F8143D4FEAC803ADB220
:10B8540007930DB92846E7E7079B0022AB42A8BF30
:10B864002B4614219BB20220059300F023FB804653
:10B8740018B3029B42681946143153F8040B8B42E7
:10B8840042F8040BF9D1D8F80430DDF8149003938E
:10B89400B9F1000F38D07C89A41BA4B24C4528BF51
:10B8A4004C4614B93F680026F2E7052000F094F9ED
:10B8B400824628B9404600F0D6FA4FF0FF30B3E78D
:10B8C40001947B68022233440093214603460420FA
:10B8D40000F090FA20B95146052000F08DF9E9E70F
:10B8E4000990384600F0A3FB1E4BA9EB0409CAF8E3
:10B8F4001470CAF81030099940461FFA89F900F00B
:10B904009BFBB9F1000FCDD1049B2644C3F30C007B
:10B91400BBF82230B6B2133B9D42A8BF40F400509E
:10B92400FFF75AF8039BD880059B03F1140080B2FB
:10B93400FFF752F84FF00002039B414658809A7279
:10B94400DA725846DBF81430089A9847404600F0FB
:10B954008AFA059B069AED1A049BADB213449BB276
:10B96400049376E7EDB300080B4B0C4A23F0030372
:10B97400002113604FF4C86259801971084998185E
:10B98400086001211A80A3F84026A3F84226054A3C
:10B9940083F84416136070479F080020D8070020DE
:10B9A400DC070020D4070020F0B5002838D01D4B58
:10B9B4001B68984234D31C4A1568A84230D200222E
:10B9C40000F8042C194A30F8084C1168A0F1080654
:10B9D4008E4203EB040138BF16608E420ED00F79FD
:10B9E40067B98D420AD01568A942195B08BF166071
:10B9F40020F8081C195BF41A19444C8030F8061C12
:10BA04005C18A6420CD0257955B91568AE4208BF1A
:10BA1400146030F8082C5A5230F8082C134459801A
:10BA2400F0BD00BFD8070020DC070020D4070020A9
:10BA34004FF6FC7303310B400B2BF0B504D9B3F56F
:10BA4400C86F02D90020F0BD0C23214A126882423B
:10BA5400F9D8204909688842F5D2A0F1080130F8E4
:10BA6400085C891A89B2A5F10804641AA4B29C423C
:10BA7400E8D3E8D056193779C7B9575B164D01F1A9
:10BA8400080423442C689BB2A64202EB030408BFBB
:10BA94002C6000252571D752618020F8083CD15ACA
:10BAA400B1F5C86FCFD00A445380F0BD03F114063A
:10BAB400A642C8D8084E01F10804234437689BB253
:10BAC400D418BC4238BF346000262671D552E3E74F
:10BAD400D8070020DC070020D40700202DE9F0431C
:10BAE40048B14FF6FC73033003400B2B05D9B3F573
:10BAF400C86F03D90020BDE8F0830C236FF0070959
:10BB0400214C224D27682968C3F5C8687A1A92B275
:10BB14004245EFD2881890F804C031F802E0BCF135
:10BB2400000F2ED1A9EB02067644B34229D803F1C3
:10BB3400140846451FD3083313449BB2CE1886F825
:10BB440004C021F803E07280012203800271CA5A02
:10BB5400B2F5C86F01D011444B80874208D10C4B19
:10BB640029681A6803461D790DB1934206D12360F2
:10BB74000830BDE8F08301230371EEE71B880B4412
:10BB8400F1E77246C4E700BFD4070020D8070020BD
:10BB9400DC07002000224368816830B50333448801
:10BBA4000A6023F00303A24200DB30BD0D680132BA
:10BBB4001D6005880B602B44F5E7000038B50024B0
:10BBC400044D55F824000134FFF7E4FF092CF8D1A3
:10BBD40038BD00BF5CF70008082808D8054B53F8A7
:10BBE40020309B68186818B102681A6070470020FA
:10BBF400704700BF5CF70008082807D831B1044B30
:10BC040053F820309B681A680A601960704700BFB7
:10BC14005CF7000890F82B3001461B0702D504316D
:10BC2400FFF74CB87047704773B505460C46B9B179
:10BC34000B680193019A6B689A420FD02E1D01A9DB
:10BC4400304601F001F801A9304602F09FFF04B12B
:10BC540024686C6014B12846FFF7DCFF02B070BDA5
:10BC6400014B1B68E5E700BFECF6000870B506461B
:10BC740015461C4609B10B684BB93046FFF7D4FF93
:10BC840005B12D68B56004B12468F46070BD02B1DB
:10BC94001568B56004B12468F4603046BDE87040AE
:10BCA400FFF7C2BFF8B503260025044680F82060DC
:10BCB4000F4F069E4560C6613E78856006F1010E11
:10BCC40080F82E60089EC56080F82B50066187F8C6
:10BCD40000E0FFF7CBFF2046079B984728B9054BA8
:10BCE4001A6822601C602046F8BD2C46FBE700BFA2
:10BCF400040800209C3D0020014B1860704700BFE1
:10BD0400A03D002090F82B20D10709D442F0010176
:10BD1400520780F82B1003D543680BB1FFF77ABFA5
:10BD2400704790F82B30D90707D523F001011B0782
:10BD340080F82B1001D5FEF723BF704790F82B2015
:10BD4400510709D442F00401D20780F82B1003D51F
:10BD540043680BB1FFF75EBF704790F82B305A076A
:10BD640044BF23F0040380F82B307047002930B51A
:10BD740006DA4C424389A4B2A34202D2012030BD68
:10BD84008CB2057B43680DB1032D0ED15B1A00F113
:10BD940010029342F2D34360438989B20B44438136
:10BDA400038919440181002030BD013D012DE5D8EE
:10BDB400002904DA4289A242E0D35B1AEBE7DDD022
:10BDC400002AFAD1DAE700000022084B10B51A70F5
:10BDD400074B1C6804B910BD206F20B100F0AEFA07
:10BDE4000023236710BDE468F4E700BFA43D0020EE
:10BDF400AC3D002070B5049D042824D8DFE800F091
:10BE04001F031B1D1D0022240334BDF8140024F05D
:10BE140003040E1986424FF0000015D8186085B14E
:10BE24002C445C6002201A730122587319815981D1
:10BE3400DA81184670BD0E24E6E70024E4E73624D0
:10BE4400E2E75D60EEE7002070BD19B110B1002299
:10BE5400FFF78CBF0020704719B110B10122FFF722
:10BE640085BF0020704738B5014610B30024E0B206
:10BE740001B938BDCB89013B9BB2CB81CBB94B7B9C
:10BE84000D689B0705D50B69084698470134294678
:10BE9400EDE70B7B032B03D10820FFF7ADFEF5E79D
:10BEA400013B012B01D80720F7E70846FFF77CFD8B
:10BEB400ECE738BD2DE9F8430E461746042845D86B
:10BEC400DFE800F00E030A0C0C002225032F3DD8F6
:10BED400DFE807F0546D6D080E25F7E70025F5E758
:10BEE4003625F3E70820FFF777FE044628B9012238
:10BEF400354B1A702046BDE8F883032243191544D4
:10BF040025F00305C5F51475133323F00303B54277
:10BF140028BF35460027436001238146904645816A
:10BF2400027307600681C381751B002D04DC0123A5
:10BF3400E38100236373DDE70820FFF74DFE38B982
:10BF44000122214B20461A70FFF78DFF0024D1E710
:10BF5400ABB200F11002B3F5147F80F80C80477384
:10BF64000760C9F800000381426028BF4FF41473CE
:10BF740001224381C281ED1A8146D6E705F11300FF
:10BF8400F31C23F0030320F00300184480B2FFF7EE
:10BF9400A5FD04460028D9D000230544133525F017
:10BFA400030545600681468103600373BFE70720EC
:10BFB400FFF712FE04460028C8D000230681436020
:10BFC400468103600773B2E7A43D002038B50389B6
:10BFD40004468B421BD90D46CB1A61898D4217D872
:10BFE400237B63B98D420AD0637B9B0707D46168C6
:10BFF4002046091B294489B2FFF71AFD044620682C
:10C004006581258108B1FFF72EFF0023236038BD29
:10C0140022896D1A1A442281ADB22468DDE70346F1
:10C02400002290B2013203B970471B68F9E710B1DE
:10C03400C3890133C381704710B550B109B910BD2C
:10C04400204603890A89046813440381002CF7D12C
:10C05400016010BD2DE9F0410C46054618B96FF09A
:10C064000F00BDE8F0810029F9D002890B899A42BA
:10C07400F5D34FF00008474663896E89A3EB0803A4
:10C08400F61B9E4261686868ACBF9EB2B6B2324687
:10C094004144384403F0C5FA3744628946441FFAE0
:10C0A40086F86B894245BFB29CBF24684FF00008F4
:10C0B4009F420BD12D6845B9002CD0D12046BDE854
:10C0C400F0816FF00500BDE8F081002734B162898A
:10C0D40023899A4202D12368002BF2D16A892B89E1
:10C0E4009A4202D12B68002BEBD1002CC4D1E5E796
:10C0F4002DE9F0410F469046064620B329B30025AA
:10C10400B8F1000F00D016B92846BDE8F08133B16C
:10C1140071898B4203D35B1A9BB23668F0E774894A
:10C124007168E41AA4B2444528BF4446194422461F
:10C1340078192544A8EB040403F073FAADB21FFA8E
:10C1440084F80023E9E70546DEE70D46DCE7000056
:10C15400F0B54FF480434FF6FF75104A104E108827
:10C16400A84208BF4FF440404FF000011CBF01300B
:10C1740080B256F82140246824B901310429F8D149
:10C184001080F0BDE78A874206D1013B9BB2002BA9
:10C19400E6D110801846F0BDE468EDE720000020E9
:10C1A40090F7000870470000F8B51A4D04460029BE
:10C1B40018BF0D4658B3037D4BBB32B9FFF7C8FF18
:10C1C400024650B96FF00100F8BD134F57F8231021
:10C1D400086870B90133042BF8D12B6803B12360CC
:10C1E4000E4BE2821A681C60E26002F0B1FB002090
:10C1F400F8BDC18A914205D106682EB1296819B1EA
:10C204008E4201D0C068E4E76FF00700F8BD6FF01C
:10C214000500F8BDECF6000890F70008B83D0020D2
:10C2240038B5037D05460BB1002038BD0220FFF769
:10C23400D3FC04460028F7D001222B690361EB8A62
:10C244000275C3826A7D42752A7A0272AA7A827260
:10C254006A7A42722A6802603BB10F4A13689D42AF
:10C2640012D1EB6813600023EB6029460120FFF72D
:10C27400C3FC0A4BA3610A4B1A681C60E26002F01B
:10C2840067FB204638BD1346002BECD0DA68954294
:10C29400F9D1EA68DA60E6E7B83D002097CA0008F9
:10C2A400B43D0020024630B5C16A058D446A6B1A5C
:10C2B4001819538EB3F5866F94BFC31AA0F586631D
:10C2C400002B01DB558530BD0020631A002BD6BF3F
:10C2D400091B5085518530BD038D10B5194489B2B1
:10C2E400B1F5066F044611D94FF406632385204641
:10C2F400FFF7D8FFB0F5067F11DBA37E204643F09D
:10C304000203A376BDE8104002F064B8037D09B1CE
:10C314002185ECE7072BE7D0092BF9D1E4E710BD21
:10C3240010B5044648B1406808B1FFF79CFD2146AA
:10C33400BDE810400320FFF75FBC10BD10B500B985
:10C3440010BD0468FFF7ECFF2046F8E7417570471D
:10C3540038B504460320FFF73FFC054660B120468C
:10C364002B4604F1100250F8041B904243F8041BBE
:10C37400F9D16868FFF75BFE284638BD00B101615A
:10C38400704708B1C0F88010704708B1C0F88C102D
:10C39400704718B1037D012B08BF81617047C0F855
:10C3A40088100277704738B5037D0446012B19D9EC
:10C3B4000A2B17D0406F18B1FFF755FD00236367B0
:10C3C400206FFFF7BBFF00254FF6FF73A06E238697
:10C3D4002567FFF7B3FFE06EFFF7B0FFA566E566DC
:10C3E400A4F8645038BD00002DE9F04FB24DDFF8D9
:10C3F400E4822B6885B001332B60B04B9B461A78DE
:10C4040001321A700026AE4F3C683CB9AD4F3E680D
:10C41400002E40F0388105B0BDE8F08F9BF8003065
:10C42400627F9A4205D1D4F80C90344626464C4695
:10C43400EBE7217D6377022994F8422002D1062A92
:10C4440000F0DD800C2A00F0DA8094F895A0BAF1AF
:10C45400000F00F09D809C4894F8943082441AF8B0
:10C46400012C9A4284BF013384F8943094F89430B8
:10C4740093427CD24FF0000A237D062B0BD1A27E7F
:10C48400D20608D52A68216A521A282A84BF0AF1DA
:10C49400010A5FFA8AFA94F8089019F008091AD088
:10C4A400042B02D0072B40F0BF804FF4FA70D4F86D
:10C4B40090E029680EF5242202F6B842B2FBF0F2AD
:10C4C400236AC91A914240F29D804FF001090AF192
:10C4D400010A5FFA8AFA206F60B12B68226AB4F904
:10C4E40040109A1A06234B439A4203D3FFF726FFC0
:10C4F40000232367237D032B40F099802B68226A55
:10C504009B1A282B03D8BAF1000F00F09A8020461A
:10C51400D4F88CA0FFF747FFE368002E00F08F806B
:10C52400F360B9F1000F09D0238B22460193E38A0B
:10C534000093616A231DE06C02F08EF823692146A2
:10C5440001200393D4F80C90FFF756FB002288F8DF
:10C554000020BAF1000F04D0039B6FF00C011846C1
:10C56400D04798F80030002B3FF45FAF4AE72046ED
:10C5740002F04CF900287FF47DAF94F8953084F8EC
:10C584009400062B3FF676AF013384F8953071E7BB
:10C59400B4F93030002BA4BF01332386E36E002BA3
:10C5A4003FF468AFB4F93000B4F940309842FFF674
:10C5B40061AF02290AD0B4F93C10B4F93E3003EB60
:10C5C400E10342498A5C9340A4F840300023B4F864
:10C5D40048202386B4F85C30618E934228BF13460A
:10C5E4004A005B0892B29342A4F84A30A4F8481077
:10C5F40038BFA4F84A20204602F076F83CE74FF012
:10C60400010A39E794F89630314A02FB03E3B3FB9D
:10C61400F0F3994208D9204602F0CEF820B994F8F4
:10C624009630013384F896304FF0000953E7092B14
:10C634007FF469AF2B68226A9B1AF02B62E73B6098
:10C644006FE7E37E227F0133DBB29A42D4F80C9089
:10C65400E3763FF6EBAED4F8883084F81BA088F874
:10C6640000A073B121462069984798F80030002B48
:10C674007FF4C8AE00287FF4D9AE204601F0AAFEAC
:10C68400D4E65046F1E72B68326A9B1AF02B0BD89C
:10C694003446F668BCE6E360D6F80C8031460120E7
:10C6A400FFF7AAFA4646B3E63046FFF77CFEF36886
:10C6B400002CF0D13B60EFE7B03D002006080020DD
:10C6C400AC3D0020BC3D0020A0F7000880F7000826
:10C6D400F8240100A83D0020036810B58B420C46E5
:10C6E40019D1CB68036000232046E360FFF75BFEAB
:10C6F400237D0A2B0AD0012B08D0A37EDA0705D5A7
:10C7040043F00203A376204601F064FE0023237560
:10C71400E38210BD1346002BE5D0DA689442F9D1C8
:10C72400E268DA60DFE7000037B5037D04460029DC
:10C734003FD0042B01D0072B3BD1626F1AB9228D55
:10C74400B2F5066F35D0238B22460193E38A616AE2
:10C754000093E06C231D01F07FFF2046FFF723FECA
:10C76400434A13689C4215D1E368136001220025F3
:10C77400404BE5601A70237D042B13D10A232375E3
:10C784003D4B1A681C60E26002F0E2F8002003B03E
:10C7940030BD1346002BE9D0DA689442F9D1E2683F
:10C7A400DA60E3E7354B1B689C4221D101F02AFB98
:10C7B400ECE7072BEAD801A252F823F0E1C70008FE
:10C7C40011C800083FC8000851C8000851C8000833
:10C7D40091C7000891C7000867C80008E38A3BB105
:10C7E400274A13689C4209D1E36813600023E3607D
:10C7F40021460120FFF700FAC8E71346002BF5D0C5
:10C80400DA689442F9D1E268DA60EFE701230021A3
:10C814001C4A52F8230005684DB90133042BF8D1A2
:10C8240021461948FFF758FF21460220E2E7A86F86
:10C83400844208BFA967ED68EEE721460C48FFF77C
:10C844004BFF01200B4B21461870D3E7204601F023
:10C8540069FD00289BD105232375204601F0BAFD0C
:10C8640094E7204601F05EFD002890D10923F3E708
:10C87400AC3D0020A83D0020BC3D0020C03D002070
:10C88400B83D002090F70008B43D0020037D01214D
:10C89400012B1EBF837E43F010038376FFF744BF52
:10C8A40010B5084614463AB11189FFF715FD204624
:10C8B400FFF7D9FA002010BD002BFBD1BDE81040D2
:10C8C400FFF7E4BFF8B50023466FD0F88050777BBC
:10C8D40004464367DDB1014632460069A847054670
:10C8E400E0B9BB0611D5238DD4F88060B3F5066F8B
:10C8F4001CBF0133238546B1002321461A46206913
:10C90400B0470D3001D16FF00C052846F8BD014643
:10C914002B4632462846FFF7C3FFE0E710F10D052A
:10C92400F1D066676FF00405EFE700002DE9F843E6
:10C93400174D184F2B78184E01332B704FF0000809
:10C944003C680CB9BDE8F8832B78627F9A421BD00F
:10C954006377A37EDA0709D543F00203A376204662
:10C9640001F038FDA37E23F00303A376636FD4F8AC
:10C974000C903BB1204686F80080FFF7A3FF337884
:10C98400002BDBD14C46DCE7D4F80C90FAE700BF6F
:10C9940006080020AC3D0020A83D002008B5FFF7A4
:10C9A400C5FF064A13780133DBB21370DB0703D5E6
:10C9B400BDE80840FFF718BD08BD00BF050800200A
:10C9C400037D2DE9F3470A2B04460E460AD101469E
:10C9D4002A48FFF781FE2146012002B0BDE8F04756
:10C9E400FFF70AB9D0F84C90D0F824A0D0F88C7096
:10C9F400D0F81080C58A9BB93DB1214A136898428A
:10CA040006D1C36813600025E5602E460FE0134687
:10CA1400002BF8D0DA689442F9D1E268DA60F2E7E0
:10CA240001461848FFF758FE0122174B1A70E06EB2
:10CA340008B1FFF783FCA06E08B1FFF77FFC206FFD
:10CA440008B1FFF77BFC46B1238B00950193224686
:10CA5400231D5146484601F0FFFD21460120FFF702
:10CA6400CBF83FB16FF00C0140463B4602B0BDE845
:10CA7400F047184702B0BDE8F08700BFBC3D002076
:10CA8400B83D0020AC3D0020A83D00200121FFF767
:10CA940097BF08B50846FFF7F9FF6FF00C0008BD13
:10CAA40038B5054601B938BD0A682B68CC689A4286
:10CAB40002D10846FFF7EAFF2146F3E730B4002429
:10CAC40022460B4B19680B4B1D6821B972B130BC5F
:10CAD4001046FFF775BF0B7D834205D10B6AEB1A35
:10CAE4009C429CBF1C460A46C968EEE730BC7047AE
:10CAF400AC3D0020B03D0020034B044A1868126886
:10CB040010441860704700BF1C000020B03D002096
:10CB1400F8B506460120FFF75FF83D4D044690BB8B
:10CB240021463C4B28681B68002B5CD114B120467D
:10CB3400FFF7ACFF0120FFF74FF8044618BB0920AC
:10CB4400FFF7BCFF0120FFF747F80446D8B90820D7
:10CB5400FFF7B4FF0120FFF73FF8044698B916F039
:10CB6400800F0CBF31467F212B4BD5F800E01B68AA
:10CB7400002B40D114B12046FFF788FF0120FFF7B6
:10CB84002BF8044668B398220021204602F06EFD7B
:10CB94004FF48663A4F860304FF4066363852385FD
:10CBA400FF23A3724FF4067363860623A4F8403070
:10CBB400E3874FF6FF73238601236675A4F8483094
:10CBC400FFF79AFF2B6860652362144BE0641B78BF
:10CBD40060646377124BA065C4F88030114BC4F8CD
:10CBE40090302046F8BD1A6A821A8A4224BF1C4635
:10CBF4001146DB6898E75F7D8F4207D81A6AAEEB6F
:10CC04000202824222BF394610461C46DB68AFE767
:10CC1400B03D0020BC3D0020AC3D002006080020B3
:10CC2400A5C8000800DD6D0010B504460846FEF7EF
:10CC34006BFA30B1438C23B1283B9BB29C4228BF92
:10CC44001C46204610BD000038B50D46044680B190
:10CC5400036873B10C4B1968FFF722FF0B4B204696
:10CC64001968FFF71DFF25B12B6813B1084B1B682A
:10CC740003B938BD18682168DA68884204BF296896
:10CC840019601346F4E700BFAC3D0020B83D002016
:10CC9400B43D00202DE9F041C368054698890C464F
:10CCA400FDF79AFEC20715D4184EBCB1E768306888
:10CCB4002B897968228903440A449A1A002A10DAD3
:10CCC4005B1A002B0ADD091A89B229816868FFF70B
:10CCD4007DF903E02046FFF731FB00242C60BDE81A
:10CCE400F081B889FDF778FEC30709D5D5F80C8023
:10CCF4000120B8F80C70FDF76FFE3843A8F80C005B
:10CD040027682046FFF70CFB3C46CEE72C080020A2
:10CD14002DE9F047A94B04461B78A94E13F0100FD8
:10CD240074D0236D3568007D5F1B002FB4F85C2040
:10CD3400616DA44F0DDBAB4203D13B68CB1A002BD2
:10CD440007DB3B6899421FD19F4B1B68DB899342E9
:10CD54001AD99D4BB4F85EC01B68B3F80EE0256584
:10CD640073463D68F4456565A4F85CE038BFA4F8F3
:10CD74005EE094F89550002B40F0158125B901230D
:10CD840084F894E084F895303B68D4F844E0A3EB4D
:10CD94000E05002D8D4D00F31F818D48008800285D
:10CDA40040F08A830A44606DB4F85C1001448A42FE
:10CDB40040F08283B4F93020002AC0F27D837345A9
:10CDC40040F07A8394F84320531CDBB29A4238BF74
:10CDD40084F8433094F84330032B40F2E980B4F8EC
:10CDE4004820638E13449BB29A4201D2A4F848307F
:10CDF400A36E002B40F06381B4F860302A8813449A
:10CE0400626BA4F86030002A40F09981704F626A26
:10CE14003888002800F04483237D062B00F24083E9
:10CE24003368A2EB030EBEF1010F00F1B581C3F12B
:10CE34000101091A1144002900F3AE81654D7146C0
:10CE4400686843899E4540F3A4814FF0000E03892E
:10CE54005B1A9BB24289914200F39581494209B21F
:10CE6400FEF7F3FF29893368626A0B449B1A2B810E
:10CE7400EB6832605A603168626A8B1A002BC0F228
:10CE84000A834B1C208D9B1A1B1A002B00F303836F
:10CE9400914240F037824F4DEB68B5F8088098898D
:10CEA400FDF79AFD10F0030018BF0120238D4044C4
:10CEB40080B28342388034D2EB689889FDF78CFDC8
:10CEC400C20710D5D5F80C90B9F80C804046FDF790
:10CED40083FD00F03E00FDF77FFD28F47C5840EA16
:10CEE4000808A9F80C80238D2B81EB689889FDF73D
:10CEF40073FD830748BF2B89686844BF03F1FF3380
:10CF04002B812989FFF762F8EB68B5F808809889C6
:10CF1400FDF762FD10F0030018BF01208044A7F85C
:10CF24000080236F002B00F04681EB689889FDF7A1
:10CF340053FDC00700F13C81D4F87080B8F1000FB4
:10CF44002ED0D8F80CE030683B88DEF80420B8F81E
:10CF5400081003441144591A002980F25E819B1A77
:10CF6400002B1DDDEB68121A2A819889FDF734FD28
:10CF7400830748BF2B89686844BF03F1FF332B81C3
:10CF84002989FFF723F8EB68B5F808909889FDF72D
:10CF940023FD10F0030018BF01208144A7F800907E
:10CFA400C4F8708007E1002D3FF4EEAE0023E9E6FB
:10CFB4007FF41EAF204601F0D5FB19E70C080020D2
:10CFC4002C08002008080020340800202008002035
:10CFD4004208002010080020E26C9A1A002A6ADC39
:10CFE400A27EB4F93CE051074FF0000142BF22F0A9
:10CFF4000402A276B4F84A2084F8421048BFA4F888
:10D004004820E28F032802EBEE02A4F8402084F8C3
:10D01400431063640FD9B4F84820B4F84A309342FB
:10D02400638E9CBF5B4393FBF2F313449BB29A421F
:10D0340001D2A4F84830E36E43B9E26E0023002A1B
:10D0440037D14FF6FF722286E376D1E6DB68586863
:10D05400FDF7C5FCE36E8146B3F80880DB68988968
:10D06400FDF7BAFC10F0030018BF01203B68A8EBE1
:10D074000308C8448044B8F1000FDEDCD4F86C80A7
:10D08400D8F80030D8F80400E366FEF7C8FFD8F8F3
:10D094000400FEF7C4FFB4F862302A88181AB8F8FE
:10D0A4000830A4F86200134440462B80FFF738F997
:10D0B400C1E72386C8E7204601F056F998E6DB6805
:10D0C400D7F800805868FDF78AFCA36E8146B3F850
:10D0D40008A0DB68A8EB0A089889FDF77DFC10F02E
:10D0E400030018BF0120A8EB0908A8EB0008B8F159
:10D0F400000FFFF681AE3B68E26C9B1A002B3FF7F2
:10D104007BAED4F86880D8F80030A3660BB9A4F8D5
:10D114006430D8F80400FEF782FFD8F80400FEF764
:10D124007EFFB4F862302A88181AB8F80830A4F8D8
:10D134006200134440462B80FFF7F2F858E6A36BD5
:10D1440039685B1A002BBFF661AEA14BB4F93C0001
:10D154001968891AA1EBE00189B20BB2002BB4F96A
:10D164003E200844BCBF49420BB2A2EBA2021344C6
:10D1740000B29BB2E38703EBE003A4F84030002342
:10D18400A087636342E60381A0F80AE0891A006875
:10D1940060E6CEF1000162E69B1A002BBEBFA37EBF
:10D1A40043F00203A37666E603682367FFF7B8F843
:10D1B400206F0028F8D13988238D32685B1A0A441D
:10D1C400626223852046FFF76DF86B681A891AB1ED
:10D1D400804A136000236B60EB684FF00009988964
:10D1E400FDF7FAFBC50748BF7B4A7A4F48BF13785F
:10D1F400DFF8E48144BF43F020031370256F25B1A9
:10D20400E968626A4B68934232D0A37ED90774D529
:10D2140023F0010343F0020371E0BEF80C00FDF7B4
:10D22400DBFBC1071DD5EB689889FDF7D5FB8207A9
:10D2340017D4D5F80CA00120BAF80C90FDF7CCFB5C
:10D24400EB6849EA0000AAF80C009889B5F8089040
:10D25400FDF7C2FB10F0030018BF01208144A7F8BA
:10D264000090D8F800904046FFF75AF8C84665E6A3
:10D2740033608889B5F808A0FDF7AEFB10F0030011
:10D2840018BF0120636A53441844EB6860629889AC
:10D29400FDF7A2FBEB68B5F808A09889FDF79CFBA5
:10D2A40010F0030018BF0120238D5044181A208564
:10D2B4002046FEF7F7FF69680B892BB13868D0B1B7
:10D2C400FEF7BAFEC5F80490EB689889FDF784FB75
:10D2D400C0070AD598F8003043F0200388F80030DE
:10D2E400237D042B04BF072323752B68284623675B
:10D2F400FFF716F882E73960E4E743F00103A37609
:10D30400BDE8F087204601F02FF8256F2DB933488A
:10D31400FFF71EF82067BDE8F0874FF00008336878
:10D3240003F1FF3E03F1010CE86842689A4218D108
:10D334002A482B8902899A4240F2C280FFF708F8F2
:10D34400002800F0BD80B8F1000F08D0C8F8000034
:10D354002946BDE8F047FFF79DBC0D46E4E720678A
:10D36400F6E7B8F1000F0AD1991A002938DA1B48F8
:10D37400FEF7EEFF002800F0A3802067E8E7D8F866
:10D384000C104968AEEB0101002929DBACEB02016A
:10D39400002925DC1148FEF7DBFF0446002800F0D5
:10D3A4008F80D8F80C3031685A68B8F808301344C4
:10D3B4005B1A002B07DD891A89B2A8F80810D8F87F
:10D3C4000400FEF703FEC8F8004029462046C0E7E3
:10D3D400B03D002024080020280800201008002068
:10D3E4002968A8460029B8D19B1A002B68DD8089DA
:10D3F400FDF7F2FAC20763D43248FEF7A9FF2860AA
:10D4040000285DD0EB6831685A682B8913445B1A95
:10D41400002B05DD891A89B229816868FEF7D6FDDB
:10D4240032683B881344626A9B1A228D9B1A002B34
:10D4340046DD2B68DB689889FDF7CEFAC30711D562
:10D444002B68D3F80C90B9F80C804046FDF7C4FA69
:10D4540000F03E00FDF7C0FA28F47C5840EA0808C2
:10D46400A9F80C80218D32682B68891A626A586881
:10D47400114489B21981FEF7A9FD2B681C89DB6868
:10D484009889FDF7A9FA10F0030018BF012004449D
:10D494003C80BDE8F0872046BDE8F04700F064BF5B
:10D4A4003368991A002905DB01339B1A228D9B1AD4
:10D4B400002B05DDA37EADE6002384F8433097E41A
:10D4C400BDE8F087100800200B4B10B519680B4A13
:10D4D40021B10B4813880088834207D2094B118875
:10D4E4001B68481C0B441080187D10BD5C1C1B1A63
:10D4F400DBB21480C85C10BD3C080020300800205A
:10D504003808002034080020F8B500230746184DD9
:10D51400184E2B8034882B88A34200D3F8BDFFF724
:10D52400D3FF0128F6D0F9D3022817D1FFF7CCFF97
:10D534000428F3D12B880133A342EFDAFFF7C4FFA9
:10D54400000284B2FFF7C0FF204380B2431EB3F54C
:10D55400067F28BF4FF406703880DBE7FFF7B4FF7F
:10D564000128DBD92B88023B18442880D2E700BF6E
:10D5740030080020400800202DE9F04F4368A94DF1
:10D5840089B02B6043898146132B40F24481A64E17
:10D5940031687069FDF70FFF0446002840F03B81B5
:10D5A400736903F0F003E02B00F035812B68988950
:10D5B400FDF712FA810A01F0FC01132940F22B81D4
:10D5C400B9F8083089B28B42C0F02581B9F80A2035
:10D5D400A1F11403DFF88082944F9BB28A423C602D
:10D5E400A8F80030924C4BD3494248462380FEF7BA
:10D5F4002CFC2C68DFF868B22088FDF7EDF9208058
:10D604002C68DFF860826088FDF7E6F960802C689A
:10D614006068FDF7E4F960602C68CBF80000A0684E
:10D62400FDF7DDF9A0602C68C8F80000E089FDF77B
:10D63400D3F92B68E0819889FDF7CEF97D4AC3B20E
:10D6440003F03F01117013F0030118BF01214FF0E3
:10D65400000E794CB9F80820246878480694346997
:10D66400114489B207942F68D6F814A0069C059239
:10D674000180CDF80C8004902CBB71480068F6E062
:10D684006FF013014846FEF7E0FBB9F80A1048466C
:10D694002180B8F80040641A494209B2FEF7D5FB6C
:10D6A400D9F80000A4B24389A342C0F0B48043680F
:10D6B400614209B23B60FEF7C8FBB9F808301C1B95
:10D6C400A9F8084095E7B4F818C03888844569D1AA
:10D6D400B4F816C07888844564D162680798824299
:10D6E40060D1206850455DD1E168BEF1000F05D0DE
:10D6F400CEF80C100699E1604F490C6000215148A6
:10D70400BDF81420C760504E504FDFF85C8113F011
:10D71400080F3960BA4601600281C0F80490317084
:10D72400A8F80010074605D099F80D3043F001031E
:10D7340089F80D30636F002B40F01681444B3D494E
:10D744001C600B78894613F0040F40F0288113F015
:10D75400020104D0207D0238012800F23C81A07E21
:10D76400C0065EBF3B4800682062002084F8960033
:10D774003948008838B104F1320006910593FFF767
:10D78400C3FE0699059B207D0238072800F292818A
:10D79400DFE810F02601A401150219026302150244
:10D7A4007C029C02A646E46866E7048BB7F800C0D6
:10D7B400A4455BD1C48AB7F802E0A64556D14468B3
:10D7C400079AA24252D10468A2454FD15E0722D4DF
:10D7D4009D0714D5DBF80040436AE31A14D4028D84
:10D7E4009B1A002B10DC1D4BCDF804C0CDF800E0D3
:10D7F4001A1D21440398006800F02EFF0BE0DC079B
:10D8040042BF144B1B68036229B1837E43F00203B9
:10D81400837600F0DFFD484609B0BDE8F04FFEF71F
:10D8240022BB00BF34080020840800203C080020EC
:10D83400380800200C080020AC3D002042080020DD
:10D84400BC3D0020100800202808002024080020E7
:10D85400C03D0020B03D0020400800209408002076
:10D864002C0800200808002020080020C068002898
:10D874009BD1A44CD4F800C0644674B9B889FDF7B0
:10D88400ABF84307C7D42B68049ADBF80010108860
:10D894001A8801925B880093A0E2B4F816E0B7F806
:10D8A4000280F04508D1D4F80080C24500F083829C
:10D8B400B8F1000F00F07F822046E468DDE79F079F
:10D8C400A9D5607DFFF724F9074640B9A369002B69
:10D8D400A1D001464FF0FF32206998479BE7736956
:10D8E4002968036033694360E38AC3820B7849780B
:10D8F40043EA0123038303230375DBF800305A1C36
:10D90400013B036523694262C26203618467237A2F
:10D9140003F00C0303727C4B1A681860C26001F0B8
:10D9240017F80122794B1A70794B1B881BB107F148
:10D934003200FFF7E9FD2B68391DDB89788EA7F8E3
:10D944005C30A7F85E30A7F84A30FFF76DF9122172
:10D954007886384600F09BFC20B100213846FFF75A
:10D964002FF858E7384654E72046FEF7ABFF0D3052
:10D9740008D0636F002B3FF4E1AE664B1B88002B8D
:10D984003FF4DCAE0024644B78681C60CAF80040A5
:10D9940010B1FEF768FA7C6009B0BDE8F08F237D12
:10D9A400022B0DD15D4BE26C1B689A4240F08280E1
:10D9B400337843F008033370A37E23F001030DE0B2
:10D9C400574B626A1B689A42F2D09B1A72D4228D1A
:10D9D4009B1A002B6EDCA37E43F00203A37669E05E
:10D9E40003F0120112294ED14C48616C00680131D8
:10D9F400814248D1DBF8003061645A1C6262E26201
:10DA04002A68013BD28923650423A4F85C20A4F886
:10DA14005E202375E118608EFFF706F941F21C12AF
:10DA2400B4F85C306086A4F84A304300934238BFAF
:10DA340013468000834228BF0346A4F84830B4F854
:10DA44006230E06E013BA4F86230A0B9A06E0368B6
:10DA5400A366FEF765FCE36E83B94FF6FF73238676
:10DA6400D4F88430002BB6D0002221462069984790
:10DA74000D30B0D186E70368E366EAE70023238626
:10DA840084F84230ECE7DA0614D52B68049ADBF804
:10DA9400001010881A88014401925B88039800934F
:10DAA400204B00681A1D00F0D7FD00232046238672
:10DAB40000F01AFE33781D0740F11F81D4F88C3032
:10DAC4001BB16FF00D012069984721460E48FEF7FF
