:020000040800F2
:1000000000000120B1D700083DD6000849D60008FD
:1000100069D6000889D60008A9D6000800000000AB
:10002000000000000000000000000000C9D6000829
:10003000D5D6000800000000E1D60008EDD6000883
:10004000F9D70008F9D70008F9D70008F9D7000850
:10005000F9D70008F9D70008F9D70008F9D7000840
:10006000F9D70008F9D70008F9D70008F9D7000830
:10007000F9D70008F9D70008FDD60008F9D700081D
:10008000F9D70008F9D70008F9D70008F9D7000810
:10009000F9D70008F9D70008F9D7000811D70008E8
:1000A000F9D70008F9D70008F9D70008F9D70008F0
:1000B000F9D70008F9D70008F9D70008F9D70008E0
:1000C000F9D70008F9D70008F9D70008F9D70008D0
:1000D000F9D7000821D70008F9D70008F9D7000898
:1000E000F9D70008F9D70008F9D700080000000088
:1000F0000000000000000000000000000000000000
:100100000000000000000000F9D70008F9D700083F
:10011000F9D70008F9D70008F9D70008F9D700087F
:10012000F9D70008F9D70008F9D70008F9D700086F
:10013000F9D70008F9D70008F9D70008F9D700085F
:10014000F9D70008F9D70008F9D70008F9D700084F
:10015000000000000000000000000000000000009F
:10016000000000000000000000000000000000008F
:10017000000000000000000000000000000000007F
:10018000000000000000000000000000000000006F
:10019000000000000000000000000000000000005F
:1001A000000000000000000000000000000000004F
:1001B000000000000000000000000000000000003F
:1001C000000000000000000000000000000000002F
:1001D000000000000000000000000000000000001F
:0401E0005FF8E0F1F3
:1001E40010B5054C237833B9044B13B10448AFF36D
:1001F40000800123237010BD400000200000000097
:10020400BCD8000808B5034B1BB103490348AFF33E
:10021400008008BD0000000044000020BCD8000895
:1002240053B94AB9002908BF00281CBF4FF0FF3159
:100234004FF0FF3000F07AB9ADF1080C6DE904CE4F
:1002440000F006F8DDF804E0DDE9022304B07047AD
:100254002DE9F0478C460E460446089D002B50D1EC
:100264008A4217466CD9B2FA82FEBEF1000F0BD057
:10027400CEF1200C01FA0EF620FA0CFC02FA0EF76D
:100284004CEA060C00FA0EF43A0CBCFBF2F9BBB2D1
:1002940002FB19CC09FB03FA4FEA144848EA0C465E
:1002A400B2450AD9F61909F1FF3180F02581B2452A
:1002B40040F22281A9F102093E44A6EB0A06B6FBEC
:1002C400F2F002FB106600FB03F3A4B244EA064416
:1002D400A34209D9E41900F1FF3280F00B81A34253
:1002E40040F2088102383C440021E41A40EA094003
:1002F400002D62D0002324FA0EF42C606B60BDE85C
:10030400F0878B4207D9002D55D0002185E84100A4
:100314000846BDE8F087B3FA83F1002940F08F80E6
:10032400B34202D3824200F2FC80841A66EB0306D5
:100334000120B446002D40D085E81010BDE8F087B8
:1003440012B90127B7FBF2F7B7FA87FEBEF1000F27
:1003540035D10121F61B4FEA174C1FFA87F8B6FB7B
:10036400FCF20CFB126608FB02F0230C43EA06467F
:10037400B04207D9F61902F1FF3302D2B04200F2BB
:10038400D2801A46361AB6FBFCF00CFB106608FB4A
:1003940000F8A3B243EA0644A04507D9E41900F1E2
:1003A400FF3302D2A04500F2B9801846A4EB08043A
:1003B40040EA02409CE729462846BDE8F08707FA50
:1003C4000EF7CEF1200326FA03F24FEA174CB2FBE4
:1003D400FCF11FFA87F80CFB112206FA0EF620FA3C
:1003E40003F301FB08F933431E0C46EA0246B14508
:1003F40000FA0EF409D9F61901F1FF3280F08C806D
:10040400B14540F2898002393E44A6EB0906B6FBA9
:10041400FCF00CFB106200FB08F99EB246EA0246AF
:10042400B14507D9F61900F1FF3371D2B1456FD93F
:1004340002383E44A6EB090640EA01418FE7C1F1C8
:10044400200722FA07F88B4048EA030326FA07F448
:100454004FEA134EB4FBFEF91FFA83FC0EFB19445A
:100464008E4020FA07F809FB0CFA48EA06084FEA1E
:10047400184646EA0444A24502FA01F200FA01F6DB
:1004840008D9E41809F1FF3044D2A24542D9A9F1B0
:1004940002091C44A4EB0A04B4FBFEF00EFB104456
:1004A40000FB0CFC1FFA88F848EA0444A44507D969
:1004B400E41800F1FF3E29D2A44527D902381C4490
:1004C40040EA0940A0FB0289A4EB0C0CCC45C246CF
:1004D400CE4615D312D055B1B6EB0A036CEB0E061B
:1004E40006FA07F7CB401F43CE402F606E60002111
:1004F400BDE8F0871046F7E68946DEE64645EAD2CF
:10050400B8EB020A69EB030E0138E4E77046D7E75B
:1005140018468FE78146BDE7114676E702383C442A
:1005240044E7084606E7023A3E442BE7704700BF1B
:1005340080B400AFBFF34F8F0549054BDB6803F46C
:10054400E062044B1343CB60BFF34F8F00BFFDE762
:1005540000ED00E00400FA0580B584B000AF034666
:10056400FB715E4B1B68002B00F0B2805C4B5A227F
:100574001A705B4B002242F022025A70002242F0B1
:1005840011029A70554B1B681A89013292B21A8172
:100594001A89534BA3F80320514B002242F0010265
:1005A4005A7100229A71FB79022B59D14C4B0222C9
:1005B400DA714B4B06221A810023FB603EE0494A64
:1005C400FB6813441B78002B05D1454AFB68134490
:1005D4000C3300221A70434AFB6813441B78012B26
:1005E40005D13F4AFB6813440C3301221A703D4A7B
:1005F400FB6813441B78022B05D1394AFB6813446A
:100604000C3302221A70374AFB6813441B78032BFD
:1006140005D1334AFB6813440C3304221A70314A5F
:10062400FB6813441B78042B05D12D4AFB68134443
:100634000C3308221A70FB680133FB60FB68032B40
:10064400BDDD01221021264800F08CFC0246244B1B
:100654001A61224B1B6814222149184600F082FEBD
:10066400FB79032B34D1204BBB601D4B0322DA7181
:100674001B4B08221A81BB685B899AB2184B5A81BA
:10068400BB681A7B164B1A73BB685A7B144B5A739C
:10069400BB689A7B124B9A73BB68DA7B104BDA7394
:1006A400BB681A7C0E4B1A74BB685A7C0C4B5A7488
:1006B400012212210A4800F055FC0246084BC3F8F7
:1006C4001220064B1B6816220549184600F04AFE04
:1006D400012318461037BD4680BD00BFA006002088
:1006E40068060020E406002068000020B0B586B04B
:1006F40002AF6F4BBB6000237B60BB68DB79032BCD
:1007040028D1012212216A4800F02CFC7860BB68D1
:10071400D3F812207B689A4240F0C580BB681B89DD
:100724009BB2072B11D9BB68187BBB68597BBB688C
:100734009C7BBB68DD7BBB681B7CBA68527C0192E6
:1007440000932B46224601F087F80320FFF704FFAD
:100754001623A9E001221021554800F003FC78601B
:10076400BB681A697B689A4240F09D80BB68DB795C
:10077400552B0AD14F4B504A03F10A04134607CBB9
:1007840020606160A2601B88A381BB68DB79022BB7
:1007940040F08780BB681B7823F07F03DBB2002B1B
:1007A40071D0BB681B7803F00303DBB2012B02D1C9
:1007B400424B01221A70BB681B7803F00303DBB2BF
:1007C400022B06D13D4B1B78002B02D13B4B02225E
:1007D4001A70BB681B78C3F30103DBB21A46374BAC
:1007E4001B789A425DD10023FB8148E0FB89BA68FB
:1007F40013441B7B002B07D1FB89DBB20133DBB233
:100804000021184601F082F8FB89BA6813441B7B67
:10081400012B07D1FB89DBB20133DBB2012118467E
:1008240001F074F8FB89BA6813441B7B022B07D1CF
:10083400FB89DBB20133DBB20221184601F066F812
:10084400FB89BA6813441B7B042B07D1FB89DBB2F9
:100854000133DBB20321184601F058F8FB89BA686A
:1008640013441B7B082B07D1FB89DBB20133DBB2BA
:100874000421184601F04AF8FB890133FB81FB8906
:10088400032BB3D90DE0BB681B7803F00303DBB281
:10089400012B06D1094B1B78012B02D1074B0022F7
:1008A4001A70142300E0002318461037BD46B0BD6B
:1008B400680000206806002020D90008880600206F
:1008C40080B586B000AFF8607A603B600B467B81F0
:1008D4007B893A6A12889B1A3A6812889342A8BFA5
:1008E4001346FB82FB8A002B17D03B6A1B881A46EF
:1008F400FB681344FA8A796818460CF0B0FF3B6829
:100904001A88FB8AD31A9AB23B681A803B6A1A88FF
:10091400FB8A13449AB23B6A1A80FB8A184618373A
:10092400BD4680BD80B487B000AF786039600023D5
:100934007B617B683B617B68FB60FB68B3F80130DB
:100944009BB241F22212934202D101237B6107E060
:100954007B6800221A7000233B613B6800221A80E6
:100964003B69002B02D07B69002BE4D07B691846DD
:100974001C37BD4680BC704780B586B000AF786038
:10098400396000237B6100233B6141E0FFF7AEFE49
:1009940003463B613B69002B37D07B6901337B61A4
:1009A4003B681A883B699BB2D31A9AB23B681A8097
:1009B4007A683B69D1183B681B881A4678680CF042
:1009C40059FF4FF4C87001F03DF80246184B1A6005
:1009D400184B1B68184601F042F80346C3F596739A
:1009E400FB60FB68092B09D8FB68C3F10A031846AE
:1009F40001F028F802460F4B1A6009E0002001F0CC
:100A040021F802460B4B1A6002E07B6800221A7040
:100A14003B681B88002B06D039687868FFF782FF93
:100A24000346002BB2D17B6918461837BD4680BDFA
:100A3400800600208406002080B586B002AFF860EE
:100A44000B467A607B81134A7B68136013E007F1DD
:100A54000A02114B00931346FA684FF4C0610F4821
:100A6400FFF72EFF03461A46FB681344FB600A494E
:100A74000A48FFF781FF7B89002BE8D14FF4C87047
:100A840000F0E0FF0246064B1A60002318461037B8
:100A9400BD4680BDA00600207E0600206800002020
:100AA4008006002090B583B000AF00F0CDFB034674
:100AB400BB710023FB7188E0BA79FB7942FA03F336
:100AC40003F00103002B27D0FC7942F2107000F0F0
:100AD400B9FF0146424A23465B0023449B0013446A
:100AE4001960404B5B891AB2FB79012101FA03F3C7
:100AF4001BB2DB431BB213401BB29AB2394B5A816F
:100B0400FC7901F019F80146354A23465B00234479
:100B14009B00134408331960FB79184600F0ACFAC3
:100B24000346002B3AD0FA792D4913465B0013444F
:100B34009B000B441B68184600F091FF0346002BF2
:100B440040D1FB790021184600F0DCFAFC79322010
:100B540000F078FF0146224A23465B0023449B00B1
:100B6400134404331960FC794EF6602000F06AFFE8
:100B740001461B4A23465B0023449B00134419602F
:100B8400184B5B891AB2FB79012101FA03F31BB2FA
:100B940013431BB29AB2134B5A8113E0FA791049EA
:100BA40013465B0013449B000B4404331B68184634
:100BB40000F055FF0346002B04D1FB7901211846B0
:100BC40000F0A0FAFB790133FB71FB79032B7FF66C
:100BD40073AF00F055FB00BF0C37BD4690BD00BF9E
:100BE4005C0800206806002080B582B000AF0023B6
:100BF4007B6001224FF48071244802F074FE0122CC
:100C04004021224802F06FFE15E04021204802F006
:100C140053FE0346012B0BD101224FF480711B4874
:100C240002F061FE00224021184802F05CFE29E037
:100C34007B6801337B607B68164A9342E5D90023C5
:100C44007B600BE000224FF48071104802F04BFEF1
:100C5400002000F02FFA7B6801337B607B680E4A2A
:100C64009342EFD9FF2000F025FA00224FF480715F
:100C7400064802F038FE00224021044802F033FE08
:100C8400FFF756FC0837BD4680BD00BF0010014089
:100C9400000801403F0D03009F86010080B582B02B
:100CA40000AF01224FF48071274802F01CFE01229C
:100CB4004021254802F017FE24480CF061F924482D
:100CC40000F07EFD00237B6022E04EF6602000F001
:100CD400B9FE20497A6813465B0013449B000B4419
:100CE40018601C497A6813465B0013449B000B444C
:100CF400043300221A6017497A6813465B001344D0
:100D04009B000B44083300221A607B6801337B602C
:100D14007B68032BD9DD40210F4802F0CDFD03464B
:100D24001A460E4B1A7000F007FF034603F5EA3328
:100D3400C0330B4A136000224021034802F0D3FD64
:100D440000BF0837BD4680BD001001405886002012
:100D5400F48600205C080020000801400000002008
:100D64006400002080B500AF4021514802F0A4FD8A
:100D74000346002B01D1FFF737FF00F0FFFC00F022
:100D8400FDFDFFF78FFE4B4B1B88002B0AD04A4B0F
:100D94001B68184600F063FE0346002B02D1454B46
:100DA40000221A80454B1B68184600F058FE034683
:100DB400002B09D10220FFF7CFFB4FF4967000F00F
:100DC40041FE02463D4B1A603D4B1B68184600F03D
:100DD40046FE0346002B68D13A4B5B89002B14D1A5
:100DE40000224021384802F07EFD4FF480713648DD
:100DF40002F091FD4FF4967000F024FE0246304B51
:100E04001A60324B00221A704FE000224FF48071B6
:100E14002D4802F068FD40212B4802F04DFD0346A9
:100E2400012B05D1294B1B780133DAB2274B1A70F9
:100E34004021254802F06FFD254B00221A7010E076
:100E4400204B5B891A46224B1B7842FA03F303F0CA
:100E54000103002B0AD11E4B1B780133DAB21C4B61
:100E64001A701B4B1B78032BEAD900E000BF184B08
:100E74001B780133DAB2164B1A70144B1A78144BE0
:100E84001B789A420AD3114B00221A704FF47A70DD
:100E940000F0D8FD02460A4B1A6006E04FF4967043
:100EA40000F0D0FD0246064B1A6000BF80BD00BFB3
:100EB400000801407E0600208006002084060020F1
:100EC4005C00002068060020001001406000002043
:100ED4006100002080B582B000AF0346FB80FB8830
:100EE400402B01D1FFF780FE00BF0837BD4680BD0F
:100EF40080B487B000AF786000237B614FF000437B
:100F04003B610023FB6011E07B6803F00103002BCD
:100F140003D07A693B6913437B617B685B087B6020
:100F24003B695B083B61FB680133FB60FB681F2B7B
:100F3400EADD7B6918461C37BD4680BC704700005B
:100F440080B483B000AF7860054B1B687A681A6080
:100F5400034B1B681B6818460C37BD4680BC7047A2
:100F6400A886002090B589B000AFF860B9607A60B7
:100F7400FB68FB6100237B617B68002B17D03D4B32
:100F84001B683C4A1268926842F001029A600EE0C3
:100F9400FB691A1DFA611B681846FFF7A9FF03468F
:100FA4001846FFF7CDFF7861BB68043BBB60BB68A4
:100FB400032BEDDC7869FFF79BFFB861BB68002B5E
:100FC4004FD07869FFF7BCFFBB68022B1AD0032B04
:100FD4002FD0012B45D1FB691B68DAB2BB695340A2
:100FE4001846FFF785FF03461B0E1846FFF7A8FFB8
:100FF4007861BB691C0A7869FFF77AFF034663408E
:10100400BB612EE0FB691B689AB2BB69534018466A
:10101400FFF76EFF03461B0C1846FFF791FF78613C
:10102400BB691C0C7869FFF763FF03466340BB612F
:1010340017E0FB691B6823F07F42BB6953401846E5
:10104400FFF756FF03461B0A1846FFF779FF78613E
:10105400BB691C0E7869FFF74BFF03466340BB6115
:1010640000BFBB69DB43BB61BB6918462437BD467F
:1010740090BD00BFA886002080B582B000AF0346B3
:10108400FB71FB79042B0DD8FB79094A52F8330024
:10109400FB79074ADB0013449B88194602F00CFCD9
:1010A400034600E0002318460837BD4680BD00BF54
:1010B4000400002080B584B000AF0346FB71002318
:1010C400FB7316E0FB7B0E4A52F83300FB7B0C4AA1
:1010D400DB0013449988FA79FB7B42FA03F3DBB211
:1010E40003F00103DBB21A4602F0FDFBFB7B013384
:1010F400FB73FB7B042BE5D900BF1037BD4680BDD5
:101104000400002080B582B000AF03460A46FB719C
:101114001346BB71FB79042B0CD8FB79074A52F8B0
:101124003300FB79054ADB0013449B88BA791946DE
:1011340002F0D9FB00BF0837BD4680BD0400002083
:1011440080B582B000AF0023FB714FF400411D480D
:1011540002F0B2FB0346002B01D10123FB714FF4D3
:101164008071194802F0A8FB0346002B03D1FB79D8
:1011740043F00203FB710821124802F09DFB034671
:10118400002B03D1FB7943F00403FB714FF400718E
:101194000C4802F091FB0346002B03D1FB7943F08A
:1011A4000803FB712021074802F086FB0346002B4D
:1011B40003D1FB7943F01003FB71FB791846083720
:1011C400BD4680BD000C01400008014080B500AF61
:1011D400194B1B68184600F042FC0346002B26D12D
:1011E400012000F02FFC0246134B1A60FFF7A8FF02
:1011F40003461A46114B1B789A4215D0104B1B8894
:1012040001339AB20E4B1A800D4B1A880D4B1B8872
:101214009A420CD30A4B00221A80FFF791FF03462F
:101224001A46064B1A7002E0054B00221A80034B43
:101234001B78184680BD00BF900600208906002058
:101244008C0600200200002080B500AFFFF7BEFF2F
:10125400084B1B78DB43DAB2074B1B781340DAB236
:10126400064B1A70034B1A78034B1A70034B1B7806
:10127400184680BD890600208B0600208A060020BF
:1012840080B400AF034B00221A7000BFBD4680BC7F
:10129400704700BF8A06002080B584B000AF0346C3
:1012A4003A60FB710B46BB80294B1B68002B48D16D
:1012B400FB79184607F0D4FC0246254B1A60244BF0
:1012C4001B68002B3FD0234AFB791370204B1B680B
:1012D400BA882149184606F0CFFE0346FB7397F9F6
:1012E4000F30002B16D11A4B1B68FF21184606F04D
:1012F40059FF0246164B1A60FF23FB73144B1B68FD
:10130400002B07D0124B1B681449184607F066FDE2
:101314000023FB7397F90F30002B0ED00C4B1B6886
:10132400184607F084FD0A4B1B681946012005F096
:1013340085FE074B00221A6006E0094A3B681360E9
:1013440002E000BF00E000BF1037BD4680BD00BF13
:10135400940600202C00002030D90008291400082D
:101364009806002080B586B000AFF860B9607A6056
:10137400FB685B68002B06D0FB685B685B891A46D8
:101384007B689A4212D2FB685B68002B04D0FB682E
:101394005B68184606F095FA7B689BB200221946F2
:1013A400042006F01FF80246FB685A60FB685B687D
:1013B400002B0DD0FB685B685B687A68B9681846D7
:1013C4000CF04DFAF86800F0E1F80346FB7501E013
:1013D400FF23FB7597F91730002B97F91730184640
:1013E4001837BD4680BD80B582B000AF78607B6899
:1013F400002B02D0786800F039F900BF0837BD46E9
:1014040080BD000080B500AF04E0054B1B681846A2
:1014140000F02CF9024B1B68002BF6D100BF80BDF5
:101424009C06002080B586B000AFF860B960134612
:10143400FB711A4B1B68002B02D16FF0050329E0E6
:10144400174B1B781946B86807F013FB00F0F0F847
:1014540038613B69002B19D03B69BA681A603B6953
:1014640000225A603969B86807F086FC0D49B868EB
:1014740007F092FC0C49B86807F09FFC01220B4965
:10148400B86807F0C1FC0023FB7501E0FF23FB757E
:1014940097F9173018461837BD4680BD98060020C6
:1014A4002C000020B514000851150008711500081F
:1014B40080B588B000AFF860B9607A60FB70002333
:1014C400FB8300237B77FB687B617B68002B32D036
:1014D4001D4B1B68002B01D1FA23FB707B69002B89
:1014E40001D1F023FB707B68BB6111E0164B1B68D4
:1014F400BA695068BA6951897A69984703467B7713
:10150400BB695A89FB8B1344FB83BB691B68BB61B2
:10151400BB69002B03D097F90330002BE6D0786821
:1015240006F0CFF9FB8B002B07D0FB8B1946B8686C
:1015340006F0F3FE01E0FE237B7797F91D30184691
:101544002037BD4680BD00BF9806002080B582B01C
:1015540000AF78600B46FB707B68002B02D0786884
:10156400FFF741FF00BF0837BD4680BD80B485B09A
:1015740000AF786039600023FB737B68BB6097F928
:101584000F3018461437BD4680BC704780B586B00E
:1015940000AF78607B681B683B610023FB827B683B
:1015A400002B3ED07B685B68FB60FE237B75FB6889
:1015B4005B897B81FB68002B17D0FB6859687A89AB
:1015C4000123386909F03AFF03467B7597F9153012
:1015D400002B0AD138690AF075FAFB685A89FB8A2C
:1015E4001344FB82FB681B68FB6097F91530002BE2
:1015F40007D1FB8A002B04D0FB8A1946386906F010
:101604008CFE97F9153013F10C0F04DB97F91530A4
:1016140013F10B0F02D17868FFF7E5FE97F9153047
:1016240001E06FF00F0318461837BD4680BD000077
:1016340080B582B000AF142005F0C8FB78607B68E9
:10164400002B0BD01422002178680CF02DF9064BE6
:101654001A687B68DA60044A7B6813607B68184602
:101664000837BD4680BD00BF9C06002080B582B00F
:1016740000AF78607B68002B2AD0174B1B687A6810
:101684009A4202D1144B00221A607B681B69002B1A
:1016940004D17B68DB68114A136004E07B681B6932
:1016A4007A68D268DA607B681B68002B04D07B6898
:1016B4001B68184606F01EFC7B685B68002B04D090
:1016C4007B685B68184606F0FCF8786805F08EFACB
:1016D40000BF0837BD4680BDA00600209C06002040
:1016E40080B582B000AF3B1D1A460121204801F0AD
:1016F400DEFB7B6803F00403002B1CD01D4B1B781E
:10170400042B05D10BF062FC1A4B02221A7028E05C
:10171400184B1B78002B03D0164B1B78032B06D1D8
:10172400144B02221A70144805F0F0FD19E0114B15
:1017340001221A7015E00F4B1B78042B11D00D4BAE
:101744001B78012B03D00B4B1B78022B06D10A48C4
:1017540005F0FFFD074B03221A7002E0054B00223F
:101764001A70044B1B7818460837BD4680BD00BF6D
:101774003C6E00202D0000205886002080B582B0E9
:1017840000AFFFF7ADFF0346FB71FB79022B07D0D7
:10179400032B0CD0012B00D00CE00BF0A3FC09E0D0
:1017A400064A41F288317F20FFF776FD02E0FFF719
:1017B40029FE00BF00BF0837BD4680BD3D0A0008B2
:1017C40080B582B000AF7860064A7B68136041F24E
:1017D400883000F037F90246034B1A6000BF08371F
:1017E400BD4680BDD8060020DC06002080B586B04A
:1017F40000AF03460A46FB711346BB71BB793B75C8
:101804005A233B74FB797B740123BB740123FB745F
:101814003B690D4A13600D4B3A7D1A700122052174
:101824000948FFF79FFB0346FB60094AFB68136006
:10183400084B1B6809220449184602F0DDFD00BF6D
:101844001837BD4680BD00BFA4060020A8060020AE
:10185400A9060020D806002090B587B000AF044642
:10186400084611461A462346FB710346BB710B46D4
:101874007B7113463B71FB793B74BB797B747B7939
:10188400BB743B79FB7497F828303B7597F82C3080
:101894007B750123FB7529E05A233B73FB7D7B7326
:1018A4000223BB730623FB73FB68144A1360144BB7
:1018B4001A4607F11003186810609B889380012270
:1018C4000A210E48FFF74EFB0346BB600D4ABB6876
:1018D40013600D4B1B680E220849184602F08CFD5C
:1018E4000A2000F033F9FB7D0133FB75FB7D042BEB
:1018F400D2D900BF1C37BD4690BD00BFA40600204E
:10190400A8060020AE060020D806002080B582B0CC
:1019140000AF03460A46FB711346BB71FB79042BE7
:1019240020D8FB79002B1DD0FB79013BFB71FB799F
:101934000E4AD35CBA799A4214D0FB790B49BA792E
:10194400CA54FB79094AD25CFB790949CB5C9A42B7
:1019540008D0052000F076F80246064B1A60064AC5
:10196400FB79137000BF0837BD4680BDE806002030
:10197400E4060020DC060020E006002080B500AF6D
:101984002A4B1B685B68002B4DD1294B1B681B68D5
:101994001B6803F04003402B45D1264B1B681846B7
:1019A40000F05DF80346002B3DD1234B1B78013337
:1019B400DAB2214B1B781946204B5B5C1946104662
:1019C400FFF714FF1C4B1B781A461B4B1B78194658
:1019D4001A4B595C1A4B9954174B1B780133DAB2E2
:1019E400154B1A70144B1B78032B02D9124B00228F
:1019F4001A70114B1B781A46104B9A5C0E4B1B78CD
:101A040019460F4B5B5C9A4206D0322000F01AF85C
:101A14000246084B1A6006E04FF4FA7000F012F820
:101A24000246044B1A6000BF80BD00BFB086002090
:101A3400D8060020DC060020E0060020E80600208E
:101A4400E406002080B582B000AF786000F074F83E
:101A540002467B68134418460837BD4680BD80B5EE
:101A640084B000AF786000F067F8F8607A68FB68CB
:101A74009A4201D2002302E07A68FB68D31A18461E
:101A84001037BD4680BD000080B500AF084A084B42
:101A94001B6843F010031360032000F03FF900209B
:101AA40000F008F80BF0DCFC0023184680BD00BFF2
:101AB4000020024080B582B000AF7860124B1A68F3
:101AC400124B1B7819464FF47A73B3FBF1F3B2FB54
:101AD400F3F3184600F057F90346002B01D0012315
:101AE4000EE07B680F2B0AD8002279684FF0FF3094
:101AF40000F01FF9064A7B681360002300E001230D
:101B040018460837BD4680BD3C0000203400002044
:101B14003000002080B400AF054B1B781A46054BFB
:101B24001B681344034A136000BFBD4680BC704762
:101B3400340000208C08002080B400AF024B1B68E6
:101B44001846BD4680BC70478C08002080B584B020
:101B540000AF7860FFF7F0FFB8607B68FB60FB685C
:101B6400B3F1FF3F05D0094B1B781A46FB681344B9
:101B7400FB6000BFFFF7E0FF0246BB68D21AFB68B8
:101B84009A42F7D300BF1037BD4680BD3400002011
:101B940080B485B000AF78607B6803F00703FB6016
:101BA4000C4BDB68BB60BA684FF6FF031340BB60A5
:101BB400FB681A02BB68134343F0BF6343F400336A
:101BC400BB60044ABB68D36000BF1437BD4680BC09
:101BD400704700BF00ED00E080B400AF044BDB6849
:101BE4001B0A03F007031846BD4680BC704700BFBC
:101BF40000ED00E080B483B000AF0346FB710849F8
:101C040097F907305B09FA7902F01F02012000FA04
:101C140002F241F8232000BF0C37BD4680BC704758
:101C240000E100E080B483B000AF03463960FB718B
:101C340097F90730002B0BDA0D49FB7903F00F03FA
:101C4400043B3A68D2B21201D2B20B441A7609E0CC
:101C5400084997F907303A68D2B21201D2B20B445C
:101C640083F8002300BF0C37BD4680BC704700BF1B
:101C740000ED00E000E100E080B489B000AFF8605E
:101C8400B9607A60FB6803F00703FB61FB69C3F189
:101C94000703042B28BF0423BB61FB690433062B11
:101CA40002D9FB69033B00E000237B610122BB698D
:101CB40002FA03F35A1EBB681A407B699A40012159
:101CC4007B6901FA03F3591E7B680B4013431846E2
:101CD4002437BD4680BC704780B582B000AF7860C1
:101CE4007B68013BB3F1807F01D301230FE00A4AF3
:101CF4007B68013B53600F214FF0FF30FFF792FFE9
:101D0400054B00229A60044B07221A6000231846F0
:101D14000837BD4680BD00BF10E000E080B582B04A
:101D240000AF78607868FFF733FF00BF0837BD461F
:101D340080BD80B586B000AF0346B9607A60FB739E
:101D440000237B61FFF748FF78617A68B968786996
:101D5400FFF792FF024697F90F3011461846FFF736
:101D640061FF00BF1837BD4680BD80B582B000AFAB
:101D74000346FB7197F907301846FFF73BFF00BF96
:101D84000837BD4680BD80B582B000AF7860786802
:101D9400FFF7A2FF034618460837BD4680BD000082
:101DA40080B483B000AF78607B68042B06D1094A05
:101DB400084B1B6843F00403136005E0054A054B18
:101DC4001B6823F00403136000BF0C37BD4680BCBE
:101DD400704700BF10E000E080B500AF00F002F8EB
:101DE40000BF80BD80B400AF00BFBD4680BC70475B
:101DF40080B582B000AF78607B68002B01D10123ED
:101E04000EE07B685B79DBB2002B05D17B68002296
:101E14001A7178680BF082FB7B6801225A710023E7
:101E240018460837BD4680BD80B485B000AF7860E1
:101E34000023FB607B68002B01D1012365E07B68F4
:101E44001B681A46334B9A420FD87B681B681A46A4
:101E5400314B1344314AA2FB03231B099A007B68CC
:101E64001A647B682E4ADA630EE07B681B681A46A4
:101E74002C4B1344294AA2FB03231B099A007B68B9
:101E84001A647B68284ADA637B68022283F821207B
:101E94007B681B681B68FB60FB6823F47F5323F09B
:101EA4003003FB607B685A687B689B681A437B68D5
:101EB400DB681A437B681B691A437B685B691A43B6
:101EC4007B689B691A437B68DB691343FA68134395
:101ED400FB607B681B68FA681A607B6800229A6260
:101EE4007B680022DA627B6800221A637B68002226
:101EF4005A637B6800229A637B68012283F821205D
:101F04007B68002283F82020002318461437BD463E
:101F140080BC704707040240F8FFFDBFCDCCCCCC99
:101F240000000240F8FBFDBF0004024080B586B00B
:101F340000AFF860B9607A603B600023FB75FB6812
:101F440093F82030012B01D102234AE0FB680122DF
:101F540083F82020FB6893F82130012B3AD1FB68E9
:101F6400022283F82120FB6800229A63FB681B6825
:101F7400FA681268126822F001021A603B687A68F3
:101F8400B968F86800F0B8FBFB68DB6A002B08D07E
:101F9400FB681B68FA681268126842F00E021A6045
:101FA4000FE0FB681B68FA681268126822F00402EA
:101FB4001A60FB681B68FA681268126842F00A0229
:101FC4001A60FB681B68FA681268126842F0010222
:101FD4001A6005E0FB68002283F820200223FB75C9
:101FE400FB7D18461837BD4680BD000080B584B01F
:101FF40000AF78600023FB737B6893F82130022BD9
:1020040005D07B6804229A630123FB73ECE07B68B0
:102014001B687A681268126822F00E021A607B68E4
:102024001B687A681268126822F001021A607B68E1
:102034001B681A466F4B9A4263D96F4A7B681B68C8
:1020440019466E4B994259D07B681B6819466C4BF4
:10205400994251D07B681B6819466A4B994248D013
:102064007B681B681946684B99423FD07B681B68A4
:102074001946664B994236D07B681B681946644BF7
:1020840099422DD07B681B6819465A4B994224D03B
:102094007B681B6819465F4B99421CD07B681B68A0
:1020A40019465D4B994214D07B681B6819465B4BFB
:1020B40099420BD07B681B681946594B994202D14F
:1020C4004FF480531BE04FF4803318E04FF48073D7
:1020D40015E0102313E0012311E04FF080730EE0AC
:1020E4004FF480130BE04FF4803308E04FF4805337
:1020F40005E04FF4807302E0102300E001235360F5
:1021040062E0484A7B681B6819463C4B994259D0A7
:102114007B681B6819463A4B994251D07B681B680F
:102124001946384B994248D07B681B681946364B90
:1021340099423FD07B681B681946344B994236D08C
:102144007B681B681946324B99422DD07B681B680B
:102154001946284B994224D07B681B6819462D4B9D
:1021640099421CD07B681B6819462B4B994214D0AA
:102174007B681B681946294B99420BD07B681B6806
:102184001946274B994202D14FF480531BE04FF478
:10219400803318E04FF4807315E0102313E001231B
:1021A40011E04FF080730EE04FF480130BE04FF416
:1021B400803308E04FF4805305E04FF4807302E06D
:1021C400102300E0012353607B68012283F821205F
:1021D4007B68002283F820207B685B6B002B03D094
:1021E4007B685B6B78689847FB7B18461037BD4665
:1021F40080BD00BF8000024000040240080002408D
:102204001C000240300002404400024058000240DA
:102214006C000240080402401C04024030040240E6
:10222400440402400000024080B584B000AF7860EE
:102234007B68DB6B1B68FB607B681B681B68BB608F
:102244007B681B6C04229A40FB681340002B00F04F
:102254000781BB6803F00403002B00F001817B6855
:102264001B681B6803F02003002B07D17B681B68E5
:102274007A681268126822F004021A607B681B688C
:102284001A466A4B9A4263D9694A7B681B681946A5
:10229400684B994259D07B681B681946664B994232
:1022A40051D07B681B681946644B994248D07B68BF
:1022B4001B681946624B99423FD07B681B681946DC
:1022C400604B994236D07B681B6819465E4B994235
:1022D4002DD07B681B681946544B994224D07B68E7
:1022E4001B681946594B99421CD07B681B681946D8
:1022F400574B994214D07B681B681946554B994239
:102304000BD07B681B681946534B994202D14FF49A
:1023140080431BE04FF4802318E04FF4806315E002
:10232400402313E0042311E04FF080630EE04FF4E8
:1023340080030BE04FF4802308E04FF4804305E072
:102344004FF4806302E0402300E00423536062E022
:10235400424A7B681B681946364B994259D07B68C0
:102364001B681946344B994251D07B681B68194647
:10237400324B994248D07B681B681946304B9942CE
:102384003FD07B681B6819462E4B994236D07B6838
:102394001B6819462C4B99422DD07B681B68194643
:1023A400224B994224D07B681B681946274B9942DB
:1023B4001CD07B681B681946254B994214D07B6856
:1023C4001B681946234B99420BD07B681B6819463E
:1023D400214B994202D14FF480431BE04FF48023F8
:1023E40018E04FF4806315E0402313E0042311E068
:1023F4004FF080630EE04FF480030BE04FF4802332
:1024040008E04FF4804305E04FF4806302E040238A
:1024140000E0042353607B68DB6A002B00F04C81EE
:102424007B68DB6A7868984746E100BF8000024019
:1024340000040240080002401C0002403000024038
:1024440044000240580002406C000240080402406C
:102454001C040240300402404404024000000240D4
:102464007B681B6C02229A40FB681340002B00F02F
:10247400F380BB6803F00203002B00F0ED807B685F
:102484001B681B6803F02003002B0BD17B681B68BF
:102494007A681268126822F00A021A607B680122C4
:1024A40083F821207B681B681A46864B9A4263D9BD
:1024B400854A7B681B681946844B994259D07B68CE
:1024C4001B681946824B994251D07B681B68194698
:1024D400804B994248D07B681B6819467E4B9942D1
:1024E4003FD07B681B6819467C4B994236D07B6889
:1024F4001B6819467A4B99422DD07B681B68194694
:10250400704B994224D07B681B681946754B9942DD
:102514001CD07B681B681946734B994214D07B68A6
:102524001B681946714B99420BD07B681B6819468E
:102534006F4B994202D14FF400531BE04FF4003328
:1025440018E04FF4007315E0202313E0022311E098
:102554004FF000730EE04FF400130BE04FF4003320
:1025640008E04FF4005305E04FF4007302E0202329
:1025740000E00223536062E05E4A7B681B681946F0
:10258400524B994259D07B681B681946504B99426B
:1025940051D07B681B6819464E4B994248D07B68E2
:1025A4001B6819464C4B99423FD07B681B681946FF
:1025B4004A4B994236D07B681B681946484B99426E
:1025C4002DD07B681B6819463E4B994224D07B680A
:1025D4001B681946434B99421CD07B681B681946FB
:1025E400414B994214D07B681B6819463F4B994272
:1025F4000BD07B681B6819463D4B994202D14FF4BE
:1026040000531BE04FF4003318E04FF4007315E05F
:10261400202313E0022311E04FF000730EE04FF487
:1026240000130BE04FF4003308E04FF4005305E0CF
:102634004FF4007302E0202300E0022353607B6820
:10264400002283F820207B689B6A002B34D07B68AF
:102654009B6A786898472FE07B681B6C08229A4035
:10266400FB681340002B28D0BB6803F00803002B41
:1026740023D07B681B687A681268126822F00E0205
:102684001A607B68DB6B7A68126C012101FA02F232
:102694005A607B6801229A637B68012283F82120B7
:1026A4007B68002283F820207B681B6B002B04D0FE
:1026B4007B681B6B7868984700BF00BF1037BD4626
:1026C40080BD00BF800002400004024008000240B8
:1026D4001C00024030000240440002405800024006
:1026E4006C000240080402401C0402403004024012
:1026F400440402400000024080B485B000AFF8609A
:10270400B9607A603B60FB68DB6BFA68126C01218C
:1027140001FA02F25A60FB681B683A685A60FB6867
:102724005B68102B08D1FB681B687A689A60FB68A9
:102734001B68BA68DA6007E0FB681B68BA689A60CD
:10274400FB681B687A68DA6000BF1437BD4680BC3A
:102754007047000080B588B000AF78600023FB614B
:102764000023FB60AC4BBB6100237B6100233B6116
:102774007B68002B01D101234AE17B6893F8443044
:10278400DBB2002B06D17B68002283F845207868F1
:102794000AF052F9A14AA14B5B6823F40003536089
:1027A4009E499E4B5A687B681B6A13434B607B6847
:1027B4001B687A68126802F58052126842F00102BE
:1027C40003F580531A60FFF7B7F9786111E0FFF75A
:1027D400B3F902467B69D31AB3F5FA7F09D97B684A
:1027E400032283F844207B68002283F845200323D6
:1027F4000EE17B681B6803F580531B6803F001033B
:10280400002BE4D17B681B681B69FB61FB6923F027
:102814001C03FB6101F052FDB861BB69804A93421D
:1028240008D9BB697F4A934204D8FB6943F0080383
:10283400FB610BE0BB697B4A934207D9BB697A4AC7
:10284400934203D8FB6943F00C03FB617B681B686C
:10285400FA691A614FF400420021786800F08FFB96
:102864000346002B0BD001233B613969786800F0E3
:102874001BFC7B68012283F844200123C8E0FF206D
:10288400FFF764F97B685B68002B00F09680FFF724
:1028940053F9786107F10C031A460121786800F0B6
:1028A40006FBFFF749F902467B69D31A41F28832E5
:1028B40093420FD901233B613969786800F0F4FB36
:1028C4007B68012283F844207B68002283F845203A
:1028D40003239DE0FB6803F00403002BDAD04FF4DC
:1028E40080520021786800F04AFB0346002B0BD08D
:1028F40001233B613969786800F0D6FB7B680122CB
:1029040083F84420012383E0FFF716F9786107F187
:102914000C031A460121786800F0C9FAFFF70CF994
:1029240002467B69D31A41F2883293420FD90123BC
:102934003B613969786800F0B7FB7B68012283F852
:1029440044207B68002283F84520032360E0FB6871
:1029540003F02003002BDAD007F10C031A461021F0
:10296400786800F0A4FA0346002B0BD001233B61E6
:102974003969786800F098FB7B68012283F8442069
:10298400012345E0FB6803F00403002B04D07B68BB
:102994004FF40062DA6002E07B680022DA60FB68D0
:1029A40003F00203002B03D07B6800229A6026E028
:1029B4007B684FF480429A6021E07B68DB68DB0827
:1029C4009AB27B689B685B089BB213439BB21A461E
:1029D4000021786800F0D3FA0346002B0BD00123C2
:1029E4003B613969786800F05FFB7B68012283F8FA
:1029F400442001230CE040F6FF70FFF7A7F8396983
:102A0400786800F051FB7B68012283F8442000239E
:102A140018462037BD4680BD00879303000001405F
:102A2400FF2C3101BF0E1602FF86930380B487B0DA
:102A340000AFF860B9607A603B6000237B61FB689B
:102A440093F84530012B01D1022352E0FB680122A7
:102A540083F84520FB68022283F84420FB68BA68A7
:102A6400DA6200237B6130E07B691B01BA6813449E
:102A74003B613B694FF480121A607B6940F2F45267
:102A840002FB03F37A6813441A463B699A60FB68B5
:102A9400DB69002B05D13B691B6843F440023B69A9
:102AA4001A603B685A1E7B699A4208D97B690133D4
:102AB4001B01BA6813441A463B69DA6002E0BA683B
:102AC4003B69DA607B6901337B617A693B689A42CE
:102AD400CAD3FB681B68BA6803F5805310331A60C5
:102AE400FB68012283F84420FB68002283F8452018
:102AF400002318461C37BD4680BC704780B487B09D
:102B040000AFF860B9607A603B6000237B61FB68CA
:102B140093F84530012B01D1022356E0FB680122D2
:102B240083F84520FB68022283F84420FB68BA68D6
:102B34009A6200237B6134E07B691B01BA68134409
:102B44003B613B694FF000421A603B6944F2F45226
:102B54005A607B6940F2F45202FB03F37A6813442F
:102B64001A463B699A60FB689B69012B05D13B6956
:102B74005B6823F000423B695A603B685A1E7B69DC
:102B84009A4208D97B6901331B01BA6813441A4677
:102B94003B69DA6002E0BA683B69DA607B69013359
:102BA4007B617A693B689A42C6D3FB681B68BA6842
:102BB40003F580530C331A60FB68012283F8442028
:102BC400FB68002283F84520002318461C37BD46C5
:102BD40080BC704780B487B000AF78603960002350
:102BE4007B610023FB6000233B617B6893F84530E5
:102BF400012B01D10223CDE07B68012283F845201B
:102C04007B68022283F844203B68002B09D17B684F
:102C1400012283F844207B68002283F845200123A5
:102C2400B8E07B68DB6A1B68002B09DA7B68122238
:102C340083F844207B68002283F845200123A9E01F
:102C44003B6840F2F452934215D93B68544AA2FBC4
:102C540003239B0A7B613A68514BA3FB02139B0A33
:102C640040F2F45101FB03F3D31A002B05D07B6926
:102C740001337B6101E001237B617B69012B1CD162
:102C84007B68DB6A7A68D26A126842F040521A6042
:102C94007B68DB6A3A68C2F30C025A607B68DB6AC1
:102CA4007A68D26A126842F000421A607B68DB6A72
:102CB400DB681A467B68DA624BE000233B6144E040
:102CC4007B68DB6A7A68D26A126822F040521A6022
:102CD4003B69002B07D17B68DB6A7A68D26A126889
:102CE40042F080521A607B68DB6A40F2F4525A6008
:102CF4007B695A1E3B699A4216D17B68DB6A7A6803
:102D0400D26A126842F000521A607B69254A02FBBB
:102D140003F23B68134403F2F453FB607B68DB6A01
:102D2400FA68C2F30C025A607B68DB6A7A68D26A7A
:102D3400126842F000421A607B68DB6ADB681A465C
:102D44007B68DA623B6901333B613A697B699A4289
:102D5400B6D37B681B6803F5805314331B6803F0F8
:102D64000403002B0DD07B681B6803F580531433D8
:102D740004221A607B681B6803F580530433002225
:102D84001A607B68012283F844207B68002283F860
:102D94004520002318461C37BD4680BC704700BF41
:102DA4000BB002AC0CFAFFFF80B485B000AF7860C2
:102DB4000023FB607B6893F84530012B01D102238B
:102DC40070E07B68012283F845207B68022283F847
:102DD40044207B689B6A1B68002B5ADB7B689B6AD8
:102DE4001B6803F48073002B30D07B689B6B5A1CE8
:102DF4007B689A637B689B6B012B03D17B689A6A1F
:102E04007B681A637B689A6A7B685A637B689B6AEF
:102E14001B681B0CC3F30D03043BFB607B68FA685F
:102E2400DA637B681B6B9A687B681A647B689B6AAD
:102E3400DB681A467B689A627B68012283F8442027
:102E44007B68002283F8452000232BE07B689B6A83
:102E54001B6803F40073002B10D07B689A6A7B68AC
:102E64001A637B6800225A637B6801229A637B6839
:102E74009B6ADB681A467B689A620AE07B689B6BF4
:102E84005A1C7B689A637B689B6ADB681A467B687A
:102E94009A627B68012283F844207B68002283F8CD
:102EA4004520012318461437BD4680BC704780B5C1
:102EB40086B000AFF8600B467A607B8100237B61AB
:102EC40000233B61FB6893F84430DBB2822B01D1D1
:102ED400022350E0FB68822283F84420FB681B68CD
:102EE4001B697B617B6903F01C037B61FB681B8AA4
:102EF400DB029BB27A6913437B617B899B0103F4F8
:102F0400F8637A6913437B617B6923F002037B6175
:102F14007B6943F001037B61FB681B687A691A6172
:102F2400FEF70AFE386115E0FEF706FE02463B692D
:102F3400D31AB3F5803F09D3FB68012283F84420F8
:102F4400FB68002283F84520032314E0FB681B6818
:102F54001B697B617B6903F00103002BE4D1FB68EF
:102F64001B685B699BB21A467B681A60FB68012286
:102F740083F84420002318461837BD4680BD80B529
:102F840086B000AFF8600B467A607B8100237B61DA
:102F940000233B61FB6893F84430DBB2422B01D140
:102FA40002234EE0FB68422283F84420FB681B683E
:102FB4001B697B617B6903F01C037B61FB681B8AD3
:102FC400DB029BB27A6913437B617B899B0103F427
:102FD400F8637A6913437B617B6943F002037B6185
:102FE4007B6943F001037B61FB681B687A6892B2DA
:102FF4005A61FB681B687A691A61FEF79DFD3861A6
:1030040015E0FEF799FD02463B69D31AB3F5803FFC
:1030140009D3FB68012283F84420FB68002283F86B
:10302400452003230DE0FB681B681B697B617B69FA
:1030340003F00103002BE4D1FB68012283F8442050
:10304400002318461837BD4680BD80B582B000AF56
:1030540078607B6893F84530012B01D102231FE08F
:103064007B68012283F845207B68022283F8442090
:10307400786800F013FA786800F02DFA786800F0A8
:1030840075FA786800F044FA786800F058FA7B68BA
:10309400012283F844207B68002283F84520002322
:1030A40018460837BD4680BD80B5B0B000AF786023
:1030B40039600023C7F8BC303B68002B07D07B681D
:1030C4004FF40062DA607B684FF480429A60002318
:1030D400BB640023FB6400233B6500237B65002362
:1030E400BB650023FB657B68DB69002B03D14FF4D0
:1030F40080633B6601E000233B664FF400737B660C
:103104000023BB660023FB6600233B6700237B6729
:103114000023BB674023FB670023C7F880300023EC
:10312400C7F884300023C7F888300023C7F88C30F0
:103134000023C7F890300023C7F894300023C7F861
:1031440098300023C7F89C308023C7F8A0300023B0
:10315400C7F8A4300023C7F8A8300023C7F8AC3060
:103164000023C7F8B0300023C7F8B4300023C7F8F1
:10317400B8307B681B681B68C7F8BC30D7F8BC2024
:10318400A94B1340C7F8BC30BA6CFB6C1A433B6DB7
:103194001A437B6D1A437B689B681A43BB6D1A43C1
:1031A400FB6D1A437B68DB681A433B6E1A437B6EE4
:1031B4001A43BB6E1A43FB6E1A433B6F1343D7F893
:1031C400BC201343C7F8BC307B681B68D7F8BC200D
:1031D4001A607B681B681B68C7F8BC300120FEF7C7
:1031E400B5FC7B681B68D7F8BC201A607B681B6839
:1031F400796FBA6F1143FA6F1143D7F880201143E6
:10320400D7F884201143D7F888201143D7F88C20AD
:103214001143D7F890200A435A607B681B685B68A7
:10322400C7F8BC300120FEF791FC7B681B68D7F817
:10323400BC205A607B681B68D7F894209A607B682E
:103244001B68D7F89820DA607B681B689B69C7F80D
:10325400BC30D7F8BC204FF641731340C7F8BC30DC
:10326400D7F89C301A04D7F8A0301A43D7F8A43002
:103274001A43D7F8A8301A43D7F8AC301A43D7F812
:10328400B0301343D7F8BC201343C7F8BC307B6875
:103294001B68D7F8BC209A617B681B689B69C7F8D8
:1032A400BC300120FEF752FC7B681B68D7F8BC20B9
:1032B4009A617B681B68D7F8B410D7F8B8200A4322
:1032C400DA617B681B68DB69C7F8BC300120FEF754
:1032D4003DFC7B681B68D7F8BC20DA610023FB60E7
:1032E4004FF000733B6100237B614FF40013BB611B
:1032F4000023FB6100233B6200237B620023BB624B
:103304000423FB624FF000733B634FF480337B6311
:103314004FF48003BB634FF40053FB6300233B640F
:1033240000237B647B681B6803F5805318331B6898
:10333400C7F8BC30D7F8BC203C4B1340C7F8BC30AE
:10334400FA683B691A437B691A43BB691A43FB69F0
:103354001A433B6A1A437B6A1A43BB6A1A43FB6AE1
:103364001343D7F8BC201343C7F8BC307B681B68F1
:1033740003F580531833D7F8BC201A607B681B68A8
:1033840003F5805318331B68C7F8BC300120FEF7DF
:10339400DDFB7B681B6803F580531833D7F8BC202A
:1033A4001A607B681B68396B7A6B1143BA6B1143E3
:1033B400FA6B11433A6C920011437A6C0A4342F45B
:1033C400000203F580531A607B681B6803F5805381
:1033D4001B68C7F8BC300120FEF7B8FB7B681B688C
:1033E40003F58053D7F8BC201A607B689B69012BD6
:1033F4000FD17B6819687B681B6803F580531C3305
:103404001B6843F4803242F0400201F580531C33C0
:103414001A607B685B691A460021786800F008F836
:1034240000BFC037BD4680BD0F8120FF233FDEF8BB
:1034340080B487B000AFF860B9607A607B68053308
:103444001B781B027A680432127813437B61BA68D2
:10345400104B13441A467B6913607B6803331B7853
:103464001A067B6802331B781B041A437B680133FA
:103474001B781B0213437A68127813437B61BA6882
:10348400054B13441A467B69136000BF1C37BD46C5
:1034940080BC7047408002404480024080B584B0C4
:1034A40000AF78600023FB607B681B687A68126851
:1034B400126842F008021A607B681B681B68FB6094
:1034C400012000F07DF87B681B68FA681A6000BF71
:1034D4001037BD4680BD80B584B000AF786000234E
:1034E400FB607B681B687A681268126842F0040209
:1034F4001A607B681B681B68FB60012000F060F8A1
:103504007B681B68FA681A6000BF1037BD4680BD2F
:1035140080B483B000AF78607B6819687B681B68EF
:1035240003F5805318331B6843F4005201F58053AC
:1035340018331A6000BF0C37BD4680BC704780B496
:1035440083B000AF78607B6819687B681B6803F5FB
:10355400805318331B6843F0020201F5805318337B
:103564001A6000BF0C37BD4680BC704780B584B07C
:1035740000AF78600023FB607B6819687B681B6878
:1035840003F5805318331B6843F4801201F580530C
:1035940018331A607B681B6803F5805318331B6863
:1035A400FB60012000F00CF87B681B68FA6803F5E7
:1035B400805318331A6000BF1037BD4680BD000029
:1035C40080B485B000AF78600A4B1B680A4AA2FB3E
:1035D40003235B0A7A6802FB03F3FB6000BFFB680A
:1035E4005A1EFA60002BF9D100BF1437BD4680BCC7
:1035F400704700BF3C000020D34D621080B48BB0F4
:1036040000AF786039600023FB610023BB610023B5
:103614007B6100233B6200233B6100237B6227E143
:1036240001227B6A02FA03F3FB613B681A68FB69B7
:103634001340BB61BA69FB699A4240F016813B684A
:103644005B68122B34D0122B0DD8022B2BD0022BFB
:1036540004D8002B31D0012B1CD048E0032B43D0DD
:10366400112B1BD043E0874A934226D0854A9342CC
:1036740006D8854A934220D0844A93421DD036E02E
:10368400834A934219D0834A934216D0824A934282
:1036940013D02CE03B68DB683B6228E03B68DB68C6
:1036A40004333B6223E03B68DB6808333B621EE083
:1036B4003B68DB680C333B6219E03B689B68002B7A
:1036C40002D104233B6212E03B689B68012B05D1C5
:1036D40008233B627B68FA691A6108E008233B62AD
:1036E4007B68FA695A6102E000233B6200BFBB6950
:1036F400FF2B01D87B6801E07B680433FB60BB6966
:10370400FF2B02D87B6A9B0002E07B6A083B9B008C
:103714003B61FB681A680F213B6901FA03F3DB4341
:103724001A40396A3B6901FA03F31A43FB681A60C9
:103734003B685B6803F08053002B00F09680574A87
:10374400564B9B6943F001039361544B9B6903F00F
:103754000103BB60BB68524A7B6A9B08023352F880
:1037640023307B617B6A03F003039B000F2202FA80
:1037740003F3DB437A6913407B617B68494A9342D4
:1037840013D07B68484A93420DD07B68474A9342E2
:1037940007D07B68464A934201D1032306E0042301
:1037A40004E0022302E0012300E000237A6A02F02D
:1037B4000302920093407A6913437B6138497B6A20
:1037C4009B0802337A6941F823203B685B6803F461
:1037D4008033002B06D03749364B1A68BB69134334
:1037E4000B6006E03349334B1A68BB69DB43134073
:1037F4000B603B685B6803F40033002B06D02D4953
:103804002C4B5A68BB6913434B6006E02949294B8A
:103814005A68BB69DB4313404B603B685B6803F445
:103824008013002B06D02349224B9A68BB691343AB
:103834008B6006E01F491F4B9A68BB69DB4313404A
:103844008B603B685B6803F40013002B06D01949B6
:10385400184BDA68BB691343CB6006E01549154B76
:10386400DA68BB69DB431340CB607B6A01337B625C
:103874007B6A0F2B7FF6D4AE00BF2C37BD4680BCCD
:10388400704700BF0000211000001110000012104A
:10389400000031100000321000002210001002401D
:1038A4000000014000080140000C014000100140EC
:1038B400001401400004014080B485B000AF78607A
:1038C4000B467B807B689A687B881340002B02D070
:1038D4000123FB7301E00023FB73FB7B18461437C1
:1038E400BD4680BC704780B483B000AF78600B469F
:1038F4007B8013467B707B78002B03D07A887B68AF
:103904001A6103E07B881A047B681A6100BF0C37D4
:10391400BD4680BC704780B483B000AF78600B466E
:103924007B807B68DA687B885A407B68DA6000BFFA
:103934000C37BD4680BC704780B582B000AF0346EB
:10394400FB80084B5A69FB881340002B06D0054ABC
:10395400FB885361FB881846FDF7BCFA00BF0837A3
:10396400BD4680BD0004014080B586B000AF7860DC
:1039740000233B617B681B6803F00103002B00F00C
:103984008780924B5B6803F00C03042B0CD08F4BA5
:103994005B6803F00C03082B12D18C4B5B6803F4B7
:1039A4008033B3F5803F0BD1884B1B6803F400339D
:1039B400002B6CD07B689B68002B68D10123C5E287
:1039C4007B689B68B3F5803F06D1804A7F4B1B68B8
:1039D40043F4803313602EE07B689B68002B0CD18A
:1039E4007A4A7A4B1B6823F480331360774A774B07
:1039F4001B6823F4802313601DE07B689B68B3F588
:103A0400A02F0CD1714A714B1B6843F480231360BF
:103A14006E4A6E4B1B6843F4803313600BE06B4AB1
:103A24006A4B1B6823F480331360684A674B1B6836
:103A340023F4802313607B689B68002B13D0FEF76C
:103A44007BF8386108E0FEF777F802463B69D31A41
:103A5400642B01D9032379E25C4B1B6803F4003324
:103A6400002BF0D014E0FEF767F8386108E0FEF7A9
:103A740063F802463B69D31A642B01D9032365E238
:103A8400524B1B6803F40033002BF0D100E000BF5D
:103A94007B681B6803F00203002B63D04B4B5B680D
:103AA40003F00C03002B0BD0484B5B6803F00C03B2
:103AB400082B1CD1454B5B6803F48033002B16D1D3
:103AC400424B1B6803F00203002B05D07B685B6943
:103AD400012B01D0012339E23C493C4B1B6823F004
:103AE400F8027B689B69DB0013430B603AE07B6858
:103AF4005B69002B20D0364B01221A60FEF71CF8BC
:103B0400386108E0FEF718F802463B69D31A022B25
:103B140001D903231AE22D4B1B6803F00203002B87
:103B2400F0D02A49294B1B6823F0F8027B689B6973
:103B3400DB0013430B6015E0254B00221A60FDF7F0
:103B4400FBFF386108E0FDF7F7FF02463B69D31A33
:103B5400022B01D90323F9E11C4B1B6803F0020378
:103B6400002BF0D17B681B6803F00803002B39D0CD
:103B74007B68DB69002B19D0164B01221A60FDF714
:103B8400DBFF386108E0FDF7D7FF02463B69D31A33
:103B9400022B01D90323D9E10C4B5B6A03F0020326
:103BA400002BF0D0012000F0BBFB1BE0094B0022EE
:103BB4001A60FDF7C1FF38610EE0FDF7BDFF024654
:103BC4003B69D31A022B07D90323BFE1001002403B
:103BD40000004242800442429B4B5B6A03F00203B2
:103BE400002BEAD17B681B6803F00403002B00F070
:103BF400A6800023FB75944BDB6903F08053002BF4
:103C04000DD1914A904BDB6943F08053D3618E4BC5
:103C1400DB6903F08053FB60FB680123FB758B4B6E
:103C24001B6803F48073002B18D1884A874B1B68E8
:103C340043F480731360FDF77FFF386108E0FDF7FC
:103C44007BFF02463B69D31A642B01D903237DE130
:103C54007E4B1B6803F48073002BF0D07B681B69D8
:103C6400012B06D1784A784B1B6A43F00103136297
:103C74002DE07B681B69002B0CD1734A724B1B6AC5
:103C840023F001031362704A6F4B1B6A23F0040391
:103C940013621CE07B681B69052B0CD16A4A6A4BD2
:103CA4001B6A43F004031362674A674B1B6A43F0C1
:103CB400010313620BE0644A634B1B6A23F00103A4
:103CC4001362614A604B1B6A23F0040313627B682E
:103CD4001B69002B15D0FDF72FFF38610AE0FDF7B3
:103CE4002BFF02463B69D31A41F28832934201D931
:103CF40003232BE1544B1B6A03F00203002BEED089
:103D040014E0FDF719FF38610AE0FDF715FF0246DC
:103D14003B69D31A41F28832934201D9032315E156
:103D2400494B1B6A03F00203002BEED1FB7D012BF0
:103D340005D1454A444BDB6923F08053D3617B684A
:103D4400DB6A002B00F08C803F4B5B6803F480330C
:103D5400B3F5803F0ED13C4B5B6803F00C03082B9A
:103D640008D1394BDB6A03F48033B3F5803F01D1CA
:103D74000123EBE07B68DB6A022B4ED1324B1B68DC
:103D840003F08053002B09D02F4BDB6A03F0F002C1
:103D94007B685B6B9A4201D00123D7E02C4B002255
:103DA4001A60FDF7C9FE386108E0FDF7C5FE02465A
:103DB4003B69D31A642B01D90323C7E0224B1B6848
:103DC40003F00063002BF0D11F491F4BDB6A23F083
:103DD400F0027B685B6B1343CB621B491A4BDB6AB3
:103DE40023F470627B681B6B1343CB62184B012274
:103DF4001A60FDF7A1FE386108E0FDF79DFE02465A
:103E04003B69D31A642B01D903239FE00E4B1B6833
:103E140003F00063002BF0D022E00B4A0A4BDB6A6C
:103E240023F48033D3620A4B00221A60FDF784FE28
:103E340038610FE0FDF780FE02463B69D31A642B1C
:103E440008D9032382E000BF001002400070004044
:103E5400680042423F4B1B6803F00063002BE9D12A
:103E64007B681B6A002B70D03A4B5B6803F00C0331
:103E7400082B68D07B681B6A022B4DD1364B00227D
:103E84001A60FDF759FE386108E0FDF755FE024659
:103E94003B69D31A022B01D9032357E02D4B1B682E
:103EA40003F00073002BF0D17B685B6AB3F5803FAD
:103EB4000FD12849274BDA6A7B685B681343CB62CE
:103EC4002449244BDB6A23F00F027B68DB6813432D
:103ED400CB6220481F4B5B6823F474127B68596AD9
:103EE4007B689B6A0B43134343601B4B01221A609C
:103EF400FDF722FE386108E0FDF71EFE02463B692D
:103F0400D31A022B01D9032320E0124B1B6803F0C0
:103F14000073002BF0D018E00F4B00221A60FDF75D
:103F24000BFE386108E0FDF707FE02463B69D31A31
:103F3400022B01D9032309E0064B1B6803F000732D
:103F4400002BF0D101E0012300E0002318461837CC
:103F5400BD4680BD001002406000424280B584B07E
:103F640000AF786039600023FB60724B1B6803F07C
:103F740007023B689A4210D26E496E4B1B6823F0CD
:103F840007023B6813430B606A4B1B6803F007028C
:103F94003B689A4201D00123C8E07B681B6803F0A8
:103FA4000203002B08D06449634B5B6823F0F002E2
:103FB4007B689B6813434B607B681B6803F00103B9
:103FC400002B6AD07B685B68012B07D15A4B1B68B6
:103FD40003F40033002B15D10123A7E07B685B6851
:103FE400022B07D1544B1B6803F00073002B09D13B
:103FF40001239BE0504B1B6803F00203002B01D10B
:10400400012393E04C494C4B5B6823F003027B682B
:104014005B6813434B60FDF78FFDF8607B685B685A
:10402400012B12D10AE0FDF787FD0246FB68D31A83
:1040340041F28832934201D9032377E03E4B5B6817
:1040440003F00C03042BEED127E07B685B68022BA2
:104054001DD10AE0FDF770FD0246FB68D31A41F258
:104064008832934201D9032360E0334B5B6803F049
:104074000C03082BEED110E0FDF75EFD0246FB6851
:10408400D31A41F28832934201D903234EE02A4BDA
:104094005B6803F00C03002BEED1264B1B6803F086
:1040A40007023B689A4210D92249224B1B6823F02D
:1040B40007023B6813430B601E4B1B6803F00702A7
:1040C4003B689A4201D0012330E07B681B6803F00F
:1040D4000403002B08D01849174B5B6823F4E062F3
:1040E4007B68DB6813434B607B681B6803F0080341
:1040F400002B09D01049104B5B6823F460527B6895
:104104001B69DB0013434B6000F01CF801460A4BAB
:104114005B681B0903F00F03084AD35C21FA03F31D
:10412400074A13600020FDF7C5FC0023184610372A
:10413400BD4680BD002002400010024014DA000891
:104144003C000020F0B591B000AF564B07F11404C9
:104154000FCB07C42380544B3C1D0FCB84E80F00C6
:1041640000237B6300233B630023FB630023FB6288
:104174000023BB630023BB6200237B624B4B5B6861
:104184007B637B6B03F00C03042B02D0082B03D05E
:104194007FE0474BBB637FE07B6B9B0C03F00F031B
:1041A40007F14002134413F82C3CFB627B6B03F4CD
:1041B4008033002B65D03D4BDB6A03F00F0307F11E
:1041C4004002134413F83C3C3B63384BDB6A03F472
:1041D4008033002B43D0354BDB6A1B0903F00F03FC
:1041E4000133BB62314BDB6A1B0A03F00F0302335A
:1041F4007B627B6A19464FF00002FB6A4FF00004B1
:1042040003FB02F501FB04F02844A1FB033402196B
:104214001446274A02FB04F1002202FB03F20A447B
:104224002349A3FB015693191E46BB6A19464FF056
:1042340000023B6B4FF0000403FB02FE01FB04F0A1
:104244007044A1FB0334021914461A462346284637
:104254003146FBF7E5FF03460C46FB6307E0FB6AC8
:10426400134A02FB03F23B6BB2FBF3F3FB6397F8D5
:1042740021301A46FB6A9A4208D1FB6B5B08FB6348
:1042840004E0FB6A0B4A02FB03F3FB63FB6BBB63B7
:1042940002E0094BBB6300BFBB6B18464437BD4605
:1042A400F0BD00BFD4D80008E4D8000800100240D4
:1042B40040787D0100093D0000127A0080B400AF0F
:1042C400024B1B681846BD4680BC70473C0000206A
:1042D40080B500AFFFF7F2FF0146054B5B681B0A90
:1042E40003F00703034AD35C21FA03F3184680BDA5
:1042F4000010024024DA000880B500AFFFF7DEFFAB
:104304000146054B5B68DB0A03F00703034AD35CF1
:1043140021FA03F3184680BD0010024024DA000895
:1043240080B485B000AF78600A4B1B680A4AA2FBD0
:1043340003235B0A7A6802FB03F3FB6000BFFB689C
:104344005A1EFA60002BF9D100BF1437BD4680BC59
:10435400704700BF3C000020D34D621080B582B08E
:1043640000AF78607B68002B01D101233FE07B68BC
:1043740093F83930DBB2002B06D17B68002283F836
:104384003820786809F0E8F87B68242283F839201B
:104394007B681B687A681268D26822F40052DA607B
:1043A400786800F069FB7B681B687A681268126998
:1043B40022F490421A617B681B687A681268526919
:1043C40022F02A025A617B681B687A681268D268F4
:1043D40042F40052DA607B680022DA637B682022B0
:1043E40083F839207B68202283F83A20002318467A
:1043F4000837BD4680BD000080B586B000AFF860C8
:10440400B9601346FB80FB6893F83930DBB2202B8C
:1044140053D1BB68002B02D0FB88002B01D10123B0
:104424004CE0FB6893F83830012B01D1022345E0BE
:10443400FB68012283F83820BA68FB681A62FB68BB
:10444400FA889A84FB68FA88DA84FB680022DA63C3
:10445400FB68212283F83920FB681B6B194A9A6296
:10446400FB681B6B184ADA62FB681B6B174A1A63FA
:10447400FB681B6B00225A6307F108037B61FB682E
:10448400186B7B691968FB681B6804331A46FB8840
:10449400FDF74CFDFB681B686FF040021A60FB6877
:1044A400002283F83820FB681B68FA681268526996
:1044B40042F080025A61002300E0022318461837B4
:1044C400BD4680BD154700086747000883470008BC
:1044D40080B588B000AF78607B681B681B68FB619F
:1044E4007B681B68DB68BB617B681B685B697B61FD
:1044F40000233B610023FB60FB6903F00F033B6176
:104504003B69002B0DD1FB6903F02003002B08D07D
:10451400BB6903F02003002B03D0786800F02BFA6A
:10452400CCE03B69002B00F0AB807B6903F0010316
:10453400002B05D1BB6903F49073002B00F0A0801D
:10454400FB6903F00103002B0AD0BB6903F48073F9
:10455400002B05D07B68DB6B43F001027B68DA63D8
:10456400FB6903F00403002B0AD07B6903F0010309
:10457400002B05D07B68DB6B43F002027B68DA63B7
:10458400FB6903F00203002B0AD07B6903F00103EB
:10459400002B05D07B68DB6B43F004027B68DA6395
:1045A400FB6903F00803002B0AD07B6903F00103C5
:1045B400002B05D07B68DB6B43F008027B68DA6371
:1045C4007B68DB6B002B78D0FB6903F02003002BA6
:1045D40007D0BB6903F02003002B02D0786800F0F9
:1045E400CAF97B681B685B6903F04003002B14BFA6
:1045F40001230023DBB2FB607B68DB6B03F0080361
:10460400002B02D1FB68002B31D0786800F016F93A
:104614007B681B685B6903F04003002B23D07B6835
:104624001B687A681268526922F040025A617B68FA
:104634005B6B002B13D07B685B6B224A5A637B68ED
:104644005B6B1846FDF7D2FC0346002B16D07B6843
:104654005B6B5B6B7A68526B104698470EE0786828
:1046640000F04DF80AE0786800F049F806E0786850
:1046740000F045F87B680022DA631EE000BF1CE00E
:10468400FB6903F08003002B08D0BB6903F08003AF
:10469400002B03D0786800F002F90FE0FB6903F007
:1046A4004003002B0AD0BB6903F04003002B05D064
:1046B400786800F048F900BF00E000BF2037BD462D
:1046C40080BD00BF7B48000880B483B000AF786031
:1046D40000BF0C37BD4680BC704780B483B000AFC8
:1046E400786000BF0C37BD4680BC704780B483B08F
:1046F40000AF786000BF0C37BD4680BC704780B403
:1047040083B000AF786000BF0C37BD4680BC7047F3
:1047140080B584B000AF78607B685B6AFB607B68BF
:104724001B681B6803F02003002B13D1FB680022D5
:10473400DA84FB681B68FA681268526922F0800206
:104744005A61FB681B68FA681268D26842F040023A
:10475400DA6002E0F868FFF7B7FF00BF1037BD4624
:1047640080BD80B584B000AF78607B685B6AFB6015
:10477400F868FFF7B2FF00BF1037BD4680BD80B5B3
:1047840084B000AF78600023FB607B685B6ABB6029
:10479400BB681B685B6903F08003002B14BF012313
:1047A4000023DBB2FB60BB6893F83930DBB2212B0A
:1047B40008D1FB68002B05D0BB680022DA84B868F6
:1047C40000F027F8BB681B685B6903F04003002B0B
:1047D40014BF01230023DBB2FB60BB6893F83A30BB
:1047E400DBB2222B08D1FB68002B05D0BB6800226A
:1047F400DA85B86800F022F8BB68DB6B43F010027E
:10480400BB68DA63B868FFF77AFF00BF1037BD46AC
:1048140080BD80B483B000AF78607B681B687A6821
:104824001268D26822F0C002DA607B68202283F822
:10483400392000BF0C37BD4680BC704780B483B0BC
:1048440000AF78607B681B687A681268D26822F4CB
:104854009072DA607B681B687A681268526922F089
:1048640001025A617B68202283F83A2000BF0C378A
:10487400BD4680BC704780B584B000AF78607B686B
:104884005B6AFB60FB680022DA85FB680022DA843D
:10489400F868FFF734FF00BF1037BD4680BD80B411
:1048A40085B000AF78607B6893F83930DBB2212B98
:1048B40043D17B689B68B3F5805F19D17B681B6A21
:1048C400FB607B681B68FA681288C2F308025A60AE
:1048D4007B681B69002B05D17B681B6A9A1C7B686B
:1048E4001A620EE07B681B6A5A1C7B681A6208E035
:1048F4007B681A687B681B6A581C796808621B7895
:1049040053607B68DB8C9BB2013B9BB27A6819468F
:10491400D184002B0FD17B681B687A681268D26837
:1049240022F08002DA607B681B687A681268D268B9
:1049340042F04002DA60002300E0022318461437F4
:10494400BD4680BC704780B582B000AF78607B689C
:104954001B687A681268D26822F04002DA607B68C9
:10496400202283F839207868FFF7AEFE002318462A
:104974000837BD4680BD80B584B000AF78607B68E1
:1049840093F83A30DBB2222B71D17B689B68B3F584
:10499400805F23D17B689B6AFB607B681B69002B6B
:1049A4000ED17B681B685B689BB2C3F308039AB2A1
:1049B400FB681A807B689B6A9A1C7B689A6229E070
:1049C4007B681B685B689BB2DBB29AB2FB681A8097
:1049D4007B689B6A5A1C7B689A621BE07B681B6934
:1049E400002B0AD17B689B6A591C7A6891627A68A9
:1049F40012685268D2B21A700CE07B689B6A591C28
:104A04007A6891627A6812685268D2B202F07F02C0
:104A1400D2B21A707B68DB8D9BB2013B9BB27A6881
:104A24001946D185002B20D17B681B687A681268EF
:104A3400D26822F02002DA607B681B687A68126808
:104A4400D26822F48072DA607B681B687A68126824
:104A5400526922F001025A617B68202283F83A20CD
:104A64007868FFF743FE002302E0002300E00223FE
:104A740018461037BD4680BDF0B585B000AF7860EC
:104A84000023FB607B681B687A681268126922F451
:104A940040517A68D2680A431A617B689A687B68D5
:104AA4001B691A437B685B691343FA681343FB6011
:104AB4007B681A687B681B68DB6823F4B05323F0B7
:104AC4000C03F9680B43D3607B681B687A6812682F
:104AD400526922F440717A6892690A435A617B6888
:104AE4001B686F4A93426BD17B681C68FFF704FC18
:104AF400024613469B0013449A001A447B685B6881
:104B04009B00B2FBF3F3674AA2FB03235B091D017D
:104B1400FFF7F2FB024613469B0013449A001A4423
:104B24007B685B689B00B2FBF3F6FFF7E5FB02468C
:104B340013469B0013449A001A447B685B689B00ED
:104B4400B2FBF3F3574AA2FB03235B09642202FB83
:104B540003F3F31A1B013233524AA2FB03235B090A
:104B640003F0F0031D44FFF7C7FB024613469B0006
:104B740013449A001A447B685B689B00B2FBF3F60B
:104B8400FFF7BAFB024613469B0013449A001A44EB
:104B94007B685B689B00B2FBF3F3424AA2FB0323EE
:104BA4005B09642202FB03F3F31A1B0132333D4A0F
:104BB400A2FB03235B0903F00F032B44A3606AE009
:104BC4007B681C68FFF784FB024613469B00134472
:104BD4009A001A447B685B689B00B2FBF3F3314A8A
:104BE400A2FB03235B091D01FFF772FB0246134678
:104BF4009B0013449A001A447B685B689B00B2FBD9
:104C0400F3F6FFF765FB024613469B0013449A0034
:104C14001A447B685B689B00B2FBF3F3214AA2FB56
:104C240003235B09642202FB03F3F31A1B013233EF
:104C34001C4AA2FB03235B0903F0F0031D44FFF7A6
:104C440047FB024613469B0013449A001A447B68B0
:104C54005B689B00B2FBF3F6FFF73AFB0246134690
:104C64009B0013449A001A447B685B689B00B2FB68
:104C7400F3F30C4AA2FB03235B09642202FB03F354
:104C8400F31A1B013233074AA2FB03235B0903F027
:104C94000F032B44A36000BF1437BD46F0BD00BF13
:104CA400003801401F85EB5180B483B000AF034648
:104CB400FB80FB881B021AB2FB881B0A9BB21BB247
:104CC40013431BB29BB218460C37BD4680BC7047D9
:104CD40080B483B000AF78607B681A067B681B02DF
:104CE40003F47F031A437B681B0A03F47F431A43CC
:104CF4007B681B0E134318460C37BD4680BC7047B7
:104D040080B500AF01F036FF02F036F902F0B4F9D5
:104D140007F082FC02F073FF07F072FB00BF80BD56
:104D240080B582B000AF786015497A6813465B009D
:104D34001344DB000B441B68002B13D010497A6822
:104D440013465B001344DB000B441B68184602F057
:104D5400B8FD0B497A6813465B001344DB000B442F
:104D640000221A6006497A6813465B001344DB008C
:104D74000B44143300221A7000BF0837BD4680BDAF
:104D8400EC06002080B582B000AF0023FB7196E0F2
:104D9400FA794F4913465B001344DB000B44143388
:104DA4001B78BB71BB79002B00F08680FA794849E7
:104DB40013465B001344DB000B4412331B8801339E
:104DC40098B2434913465B001344DB000B4412338F
:104DD40002461A80FA793E4913465B001344DB000D
:104DE4000B4412331B88B3F5967F15D2FA793849F0
:104DF40013465B001344DB000B4414331B78012B74
:104E04000FD1FA79324913465B001344DB000B449B
:104E140012331B88042B04D9FB791846FFF780FF53
:104E24004AE0FA792A4913465B001344DB000B4439
:104E340014331B78032B0AD1FA79254913465B00F6
:104E44001344DB000B44143304221A7034E0FA795F
:104E54001F4913465B001344DB000B4414331B78D7
:104E6400042B0AD1FA791A4913465B001344DB0078
:104E74000B44143302221A701EE0FA7914491346C3
:104E84005B001344DB000B4414331B78012B13D158
:104E9400FA790F4913465B001344DB000B440833D3
:104EA4001868FA7913465B001344DB00084A13447C
:104EB4000433194600F05AFDFB790133FB71FB7989
:104EC400092B7FF665AF00BF0837BD4680BD00BF24
:104ED400EC06002080B588B000AFF8600B467A601D
:104EE400FB720A23FB770A23BB770A237B77002311
:104EF4003B770A23FB7600233B830023FB820023BA
:104F0400BB8200233B7786E03A7F734913465B00FC
:104F14001344DB000B4414331B78FB7497F91D30E6
:104F24000A2B05D1FB7C002B02D13B7F7B776FE002
:104F3400FB7C002B6CD0FB68002B0FD0FB6819683E
:104F44003A7F654813465B001344DB000344043393
:104F54001B68994202D197F91C30B8E0FB7C012B05
:104F64003BD13A7F5C4913465B001344DB000B449E
:104F74001B68002B18D03A7F574913465B00134433
:104F8400DB000B4412331B883A8B9A4240D83B7F98
:104F9400FB763A7F504913465B001344DB000B4415
:104FA40012331B883B8333E03A7F4B4913465B0043
:104FB4001344DB000B4412331B88FA8A9A4227D825
:104FC4003B7FFB773A7F444913465B001344DB0085
:104FD4000B4412331B88FB821AE0FB7C012B17D98C
:104FE4003A7F3D4913465B001344DB000B44123304
:104FF4001B88BA8A9A420BD83B7FBB773A7F3649E3
:1050040013465B001344DB000B4412331B88BB8242
:105014003B7F01333B773B7F092B7FF675AFFB7AF0
:1050240003F00203002B08D197F91D300A2B07D196
:10503400FB7A03F00103002B02D14FF0FF3346E06B
:1050440097F91D30092B02DC7B7F3B7720E097F931
:105054001E30092B07DCBB7F3B773A7F13465B008E
:105064001344DB0010E097F91F30092B02DCFB7FAF
:105074003B7709E097F91B30092B02DCFB7E3B7779
:1050840002E04FF0FF3322E03B7F1846FFF748FE73
:105094003A7F13465B001344DB00FB68002B0AD005
:1050A4003A7FFB6819680C4813465B001344DB0025
:1050B4000344043319603A7F074913465B001344E1
:1050C400DB000B44123300221A8097F91C30184677
:1050D4002037BD4680BD00BFEC06002080B588B0F7
:1050E40002AFF860B9607A60FB70BB68002B12D025
:1050F400BB681B68002B0ED0BB681B68F968184698
:1051040001F002F80346002B05D1BB681B6803F0CD
:10511400F003E02B02D16FF00F036CE0FB78FA6828
:105124001946B868FFF7D6FE0346FB7597F91730A2
:10513400002B02DA97F917305DE097F91720304910
:1051440013465B001344DB000B44143302221A7031
:1051540097F917202A4913465B001344DB000B44DC
:105164000833FA681A6097F9172013465B00134452
:10517400DB000833224A13440433062279681846B4
:1051840008F06DFB97F917201D4913465B00134483
:10519400DB000B44123300221A8097F917201849B8
:1051A40013465B001344DB000B441B68002B21D027
:1051B40097F91720124913465B001344DB000B4494
:1051C4001B683B6197F917200D4913465B00134494
:1051D400DB000B4400221A60FB6803F125024FF444
:1051E400006300937B683969F86807F0EFFB38695E
:1051F40002F067FB002318461837BD4680BD00BF88
:10520400EC06002080B584B000AF78600023FB7307
:105214001FE0FA7B124913465B001344DB000B4486
:1052240014331B78BB73BB7B002B0FD0FA7B0C4968
:1052340013465B001344DB000B4408331A687B6895
:105244009A4203D1FB7B1846FFF76AFDFB7B0133CF
:10525400FB73FB7B092BDCD900BF1037BD4680BD37
:10526400EC06002080B588B002AF786039603B68F6
:10527400002B00F08A807B685B683B613B691B887C
:105284009BB2B3F5807F0CD13B691B79062B08D107
:105294003B695B79042B04D13B695B889BB2082B87
:1052A40003D0786802F00DFB70E03B690E331B6895
:1052B400FB603B6918331B68BB603B6804331B68A5
:1052C400002B02D10023FB7509E0BA683B68043364
:1052D4001B689A420CBF01230023DBB2FB753B69B8
:1052E40003F10802FB7D002B01D0012300E002231F
:1052F40007F10C013868FFF7F1FE3B69DB889BB2CC
:10530400B3F5807F03D0B3F5007F37D039E0FB7D60
:10531400002B35D00220FFF7C7FC03461A463B6931
:10532400DA803B6918333A690E3212681A603B69B5
:105334000E333A68043212681A603B6903F11200B2
:105344003B6908330622194608F089FA3B6903F1E0
:1053540008003B6825330622194608F080FA3B69A9
:1053640003F108023B6903F1120140F606030093BE
:105374000B467968386807F029FB01E000BF00E0BC
:1053840000BF786802F09DFA00E000BF1837BD4600
:1053940080BD000080B586B002AFF860B9601346E6
:1053A400FB71FA7913465B001344DB00FA793C493C
:1053B40013465B001344DB000B4414331B78022BAD
:1053C40053D1FA79364913465B001344DB000B448E
:1053D40012331B88B3F58E7F19D9FA7913465B0013
:1053E4001344DB002E4A134404331946F86800F0D2
:1053F400BDFA0346002B38D1FA79294913465B00DC
:105404001344DB000B44143303221A702DE0FA79A1
:10541400234913465B001344DB000B4412331B88FF
:10542400B3F5877F21D3FA7913465B001344DB007D
:105434001B4A1344191DFA7913465B001344DB001D
:105444000833174A134404331A46F86800F06CFA18
:105454000346002B09D1FA79114913465B00134422
:10546400DB000B44143303221A70FB6803F125019B
:10547400FA7913465B001344DB000833084A1344EB
:105484001A1D4FF40063009313460A46B968F8687E
:1054940007F09CFA034618461037BD4680BD00BF8E
:1054A400EC06002080B58AB002AFF860B9607A607B
:1054B4007B68BB617B681B68F968184600F024FEB2
:1054C4000346002B02D0574BFB619BE07B681B68B3
:1054D40003F0F003E02B18D101233B7400237B7409
:1054E4005E23BB747B6801331B7803F07F03DBB25C
:1054F400FB747B6802331B783B757B6803331B7832
:105504007B7507F11003FB617CE07B681A68FB681C
:1055140004331B685A40FB6808331B681340002B94
:1055240012D07B681B689BB24FF6A96293420BD0E2
:10553400FB680C331B68002B03D0FB680C33BB6186
:1055440002E06FF0030369E0374B1B781946374AD2
:105554000B465B000B44DB00134414331B78012B14
:1055640017D9BB691A68304B1B7818462F49034674
:105574005B000344DB000B4404331B689A4208D1EC
:10558400294B1B781A46B968F868FFF703FF0346EE
:1055940044E00023FB752AE097F9172023491346BA
:1055A4005B001344DB000B4414331B78012B18D924
:1055B400BB69196897F917201C4813465B0013440C
:1055C400DB00034404331B6899420AD1FA7D164B6D
:1055D4001A70FB7D1A46B968F868FFF7DBFE0346CC
:1055E4001CE097F91730DBB20133DBB2FB7597F996
:1055F4001730092BD0DDBA68B969F86800F018F8DB
:1056040003460BE0FB6803F125024FF400630093AB
:10561400FB69B968F86807F0D9F9034618462037DA
:10562400BD4680BD04DA0008DC070020EC0600203B
:1056340080B58CB002AFF860B9607A60FB6825333E
:105644007B61FF2387F8273000233B62BB681B681C
:10565400F968184600F058FD0346002B0CD1BB68CE
:105664001B6803F0F003E02B06D0BB68002B03D0CB
:10567400BB681B68002B02D16FF00F03ECE0FA68E3
:105684000121B868FFF726FC0346FB7497F9133031
:10569400002B02DA97F91330DEE097F913207049F2
:1056A40013465B001344DB000B4414331B78002BBC
:1056B40017D101233B6297F91320694913465B0014
:1056C4001344DB000B44143301221A7097F913209E
:1056D400634913465B001344DB000B440833FA6848
:1056E4001A6097F913205E4913465B001344DB00EC
:1056F4000B4414331B78012B05D097F91320134660
:105704005B001344DB003B6A002B02D17B68002B57
:105714000CD1B968F86800F029F9034687F82730F6
:105724007B68002B02D197F9273095E097F9132075
:105734004B4913465B001344DB000B4414331B78C2
:10574400012B19D9FA7C474B1A7097F91320134689
:105754005B001344DB000833414A13441A1D4FF421
:105764000063009313467A697968F86807F02EF9A4
:10577400034687F827306DE097F91320384913461C
:105784005B001344DB000B4414331B78012B61D101
:105794000023BB617B68FB610EE0FB695A89FB69EE
:1057A4001B899A42FB691B7B012B02D00123BB613D
:1057B40005E0FB691B68FB61FB69002BEDD1BB694C
:1057C400002B17D0FB691B8900221946022001F027
:1057D40009FEF861FB69002B11D07968F86902F0C1
:1057E40022F90346002B0AD0F86902F06AF8002374
:1057F400FB6104E07B68FB61F86902F0D4F8FB69A3
:10580400002B24D097F91320154913465B00134449
:10581400DB000B441B68002B0BD097F913201049B5
:1058240013465B001344DB000B441B68184602F06C
:1058340048F897F913200A4913465B001344DB0028
:105844000B44FA691A60002387F8273002E0FF232B
:1058540087F8273097F9273018462837BD4680BD8A
:10586400EC060020DC07002080B58AB002AFF860A7
:10587400B9607A603B600023FB7700221C21022080
:1058840001F0B0FDB861BB69002B02D14FF0FF33CA
:1058940046E0BB695B687B61BB8E1846FFF704FA80
:1058A40003461A467B69DA807B6908330622396825
:1058B400184607F0D4FF7B6912330622F96A1846AA
:1058C40007F0CDFF7B690E33BA6A12681A607B69F0
:1058D40018333A6B12681A607B6900221A7000222E
:1058E40042F001025A707B69002242F008029A7069
:1058F4000022DA707B6906221A717B6904225A71CC
:1059040040F6060300937B68BA68B969F86807F043
:105914005DF8B86901F0D5FF0023BB6197F91F302A
:1059240018462037BD4680BD80B588B004AFF86006
:10593400B9607A60FB6803F12501FB6803F1250077
:10594400FB68043301220392BA680292064A019268
:10595400009303467A68F868FFF786FF0346184603
:105964001037BD4680BD00BF0CDA000880B582B098
:1059740000AF78603960054A39687868FFF7D4FF6A
:10598400034618460837BD4680BD00BF04DA000848
:1059940080B58EB004AF78603960764B9B687B62CB
:1059A4007B6A1B789BB203F00F039BB29B009BB2F4
:1059B4007B84B7F92230132B40F3C4807B685B8966
:1059C400032B40F2C1807B685B681B7887F8213029
:1059D40097F82130002B00F0AE80082B40F0AE8009
:1059E400654BFB61634B5B6903F0F003E02B00F054
:1059F400B280604B5A695F4B1B681946104600F031
:105A040083FB0346002B40F0A8807B681B89072B8F
:105A140040F29C807B8C0E339BB21BB21946786893
:105A240001F02BFF0346002B42D07B681A897B8C44
:105A340013449BB200221946022001F0D3FCB86142
:105A4400BB69002B00F08B80BB695B891A46B7F9F0
:105A5400223008339A4203D2B86901F032FF81E060
:105A6400BB695B68B7F92220796A184607F0F7FE2C
:105A74007B8C5B429BB21BB21946B86901F0FDFEF8
:105A84000346002B03D0B86901F01BFF6AE0796874
:105A9400B86901F0C8FF0346002B03D0B86901F0D0
:105AA40010FF5FE0786801F00CFFBB697B600CE0DD
:105AB4007A8C6FF00D039B1A9BB21BB2194678685F
:105AC40001F0DBFE0346002B4BD17B685B687B61F6
